:020000040800F2
:10000000980800204905000835020008370200085A
:10001000430200084F0200085B02000800000000D5
:10002000000000000000000000000000670200085F
:1000300069020008000000005F0500086B0200086C
:100040006305000863050008630500086F020008E7
:1000500063050008630500086D0200081F1600080C
:1000600063050008630500086305000863050008D0
:1000700063050008630500086305000863050008C0
:1000800063050008630500086305000863050008B0
:1000900063050008630500086305000863050008A0
:1000A0006305000863050008630500086305000890
:1000B0006305000863050008630500086305000880
:1000C0006305000863050008630500086305000870
:1000D000630500083F150008551A0008630500086D
:1000E00063050008630500086305000800F002F8D6
:1000F00000F090F80AA090E8000C82448344AAF132
:100100000107DA4501D100F085F8AFF2090EBAE82F
:100110000F0013F0010F18BFFB1A43F0010318473B
:1001200084320000A4320000103A24BF78C878C19D
:10013000FAD8520724BF30C830C144BF04680C60ED
:10014000704700000023002400250026103A28BF35
:1001500078C1FBD8520728BF30C148BF0B60704739
:100160006E2901F07087702902F0D180662903F0B2
:10017000AB80652903F0A880672903F0A580612979
:10018000AFF3008003681B0A28BF41F08001692992
:1001900001F04085642901F03D85752901F03A851B
:1001A0006F2902F05E80782902F09D80E92901F034
:1001B000F987E42901F0F687F52901F0F387EF29A3
:1001C00002F05B80F82902F09C800368DB0928BFFD
:1001D00041F08001632901F07A87732901F07F875C
:1001E000E32902F00983F32902F00E83002070470F
:1001F0001FB502F053FB04000020002103F038F883
:10020000401C60600020002103F048F8E0601FBD42
:1002100010B510BD02F01DFB1146FFF7E9FF01F01C
:1002200010FB02F0F1FB03B4FFF7F2FF03BC02F096
:10023000F5FB000070470EA11C4801F05CF900BFFF
:10024000FEE71BA1194801F056F900BFFEE727A100
:10025000164801F050F900BFFEE733A1134801F042
:100260004AF900BFFEE77047704770477047704714
:100270000D0A2A2A2A2A2A2A2A2A2A2A2A2A2A2A1B
:100280002A2A2A2A2A486172644661756C745F487A
:10029000616E646C65722A2A2A2A2A2A2A2A2A2A44
:1002A0002A2A2A2A2A2A2A2A2A0D0A000038014044
:1002B0000D0A2A2A2A2A2A2A2A2A2A2A2A2A2A2ADB
:1002C0002A2A2A2A2A4D656D4D616E6167655F484D
:1002D000616E646C65722A2A2A2A2A2A2A2A2A2A04
:1002E0002A2A2A2A2A2A2A2A2A0D0A000D0A2A2A12
:1002F0002A2A2A2A2A2A2A2A2A2A2A2A2A2A2A2A5E
:100300002A4275734661756C745F48616E646C65F2
:10031000722A2A2A2A2A2A2A2A2A2A2A2A2A2A2AF5
:100320002A2A2A2A0D0A00000D0A2A2A2A2A2A2AFB
:100330002A2A2A2A2A2A2A2A2A2A2A2A2A55736172
:1003400067654661756C745F48616E646C65722A9E
:100350002A2A2A2A2A2A2A2A2A2A2A2A2A2A2A2AFD
:100360002A2A0D0A000000000CB500200190009020
:100370006C48006840F480306A49086000BF6948F2
:10038000006800F4003000900198401C0190009833
:1003900018B90198B0F5A06FF1D16248006800F477
:1003A000003010B10120009001E000200090009882
:1003B000012843D15C48006840F010005A490860A9
:1003C0000846006820F0030008600846006840F016
:1003D0000200086053484068524948600846406837
:1003E00048600846406840F48060486008464068BD
:1003F00020F47C1048600846406840F4E8104860EB
:100400000846006840F08070086000BF45480068FA
:1004100000F000700028F9D04248406820F0030046
:10042000404948600846406840F00200486000BF0C
:100430003C48406800F00C000828F9D10CBD10B50C
:10044000FFF792FF10BD10B53648006840F001007C
:1004500034490860084640683449084031494860DA
:1004600008460068324908402E490860084600687E
:1004700020F4802008600846406820F4FE004860B0
:100480004FF41F008860FFF7DAFF4FF00060294942
:10049000086010BD10B5002100200022214B5B68D0
:1004A00003F00C0121B1042906D0082928D107E066
:1004B000214B224C236027E01F4B204C236023E07C
:1004C000184B5B6803F47010164B5B6803F48032C2
:1004D000022303EB904022B9194B4343174C23608E
:1004E0000DE0104B5B6803F4003323B1144B43431E
:1004F000124C236003E0104B4343104C236003E095
:100500000D4B0E4C236000BF00BF064B5B68C3F36E
:1005100003130C4CE15C094B1B68CB40074C236078
:1005200010BD000000100240002002400000FFF853
:10053000FFFFF6FE08ED00E000127A000000002048
:1005400000093D0004000020094880470948004791
:10055000FEE7FEE7FEE7FEE7FEE7FEE7FEE7FEE773
:10056000FEE7FEE704480549054A064B70470000D0
:1005700047040008ED0000089802002098080020B9
:10058000980400209804002031490143314A116049
:10059000704770B5002100230F22C47804B32D4C9E
:1005A000246804F4E064C4F5E064210AC1F10403A2
:1005B000CA40447804FA03F18478144021430901C5
:1005C000254C0678A155047804F01F050124AC40A1
:1005D00005786D11AD0005F1E025C5F8004109E091
:1005E000047804F01F050124AC401C4D06787611F8
:1005F00045F8264070BD1A4A0A400243154B1B1F9E
:100600001A60704739B1134A121D12680243114B28
:100610001B1D1A6006E00F4A121D126882430D4B23
:100620001B1D1A607047042808D14FF0E0210969AA
:1006300041F004014FF0E022116107E04FF0E021AA
:10064000096921F004014FF0E022116170470000B8
:100650000000FA050CED00E000E400E080E100E0BD
:1006600080FFFF1F10B50446CC48844208D1012109
:10067000042000F02DFB0021042000F029FB46E0BF
:10068000C748844208D10121082000F021FB002145
:10069000082000F01DFB3AE0C248844208D1012145
:1006A000102000F015FB0021102000F011FB2EE0BF
:1006B000BD48844208D10121202000F009FB00211F
:1006C000202000F005FB22E0B848844208D1012137
:1006D000402000F0FDFA0021402000F0F9FA16E079
:1006E000B348844208D10121802000F0F1FA0021B2
:1006F000802000F0EDFA0AE0AE48844207D10121E3
:10070000801500F0E5FA0021A01500F0E1FA10BD17
:1007100010B50121084600F0DBFA0021012000F0AD
:10072000D7FA10BD2DE9F041024600250026002031
:1007300000230024002791F803C00CF00F0591F866
:1007400003C00CF0100CBCF1000F03D091F802C0F4
:100750004CEA050591F800C0BCF1000F31D01468D7
:1007600000202BE04FF0010C0CFA00F3B1F800C0B0
:100770000CEA03069E4220D183004FF00F0C0CFAC6
:1007800003F7BC4305FA03FC4CEA040491F803C0E8
:10079000BCF1280F06D14FF0010C0CFA00FCC2F896
:1007A00014C00AE091F803C0BCF1480F05D14FF026
:1007B000010C0CFA00FCC2F810C0401C0828D1D370
:1007C0001460B1F800C0BCF1FF0F34DD54680020A4
:1007D0002EE000F1080C4FF0010808FA0CF3B1F814
:1007E00000C00CEA03069E4221D183004FF00F0C9B
:1007F0000CFA03F7BC4305FA03FC4CEA040491F835
:1008000003C0BCF1280F05D100F1080C08FA0CF860
:10081000C2F8148091F803C0BCF1480F07D100F171
:10082000080C4FF0010808FA0CF8C2F81080401CC0
:100830000828CED35460BDE8F0814FF6FF710180E7
:10084000022181700421C170704702460020936824
:100850000B400BB1012000E0002070470146886882
:1008600080B2704702460020D3680B400BB10120D4
:1008700000E0002070470146C86880B270470161FF
:100880007047416170470AB1016100E04161704702
:10089000C16070474FF480320A4382618161826196
:1008A00082698269704702460020434B18684FF600
:1008B0008073184040EA021008433F4B18607047AD
:1008C0003E49C8617047F0B50A4600230024002164
:1008D000002500F00046B6F1004F02D1364EF16916
:1008E00001E0354E7168C0F3034583B200F4401651
:1008F000B6F5401F08D121F070612F4E766826F0C2
:1009000070662D4F7E6012E000F48016B6F5801FF1
:1009100006D1032606FA05F4A14341F0706106E012
:10092000460D360103FA06F6B14341F0706122B17B
:10093000460D360103FA06F6314300F00046B6F1E3
:10094000004F02D11C4EF16101E01B4E7160F0BD01
:1009500030B500228B071C0F0F2303FA04F2164B4D
:1009600008338C1053F824309343134C08348D1003
:1009700044F8253023468C1053F824308C07240F7C
:1009800000FA04F423430C4C08348D1044F825304D
:1009900030BD0A49DC3108607047000000080140A2
:1009A000000C0140001001400014014000180140FB
:1009B000001C0140002001400000014000002042D6
:1009C000DF48006840F00100DD49086008464068E3
:1009D000DC490840DA49486008460068DA490840BE
:1009E000D74908600846006820F48020086008465F
:1009F000406820F4FE0048604FF41F008860704794
:100A0000CF49096821F48031CD4A11601146096847
:100A100021F480211160B0F5803F03D0B0F5802F24
:100A20000ED106E0C649096841F48031C44A11601C
:100A300007E0C349096841F4A021C14A116000E000
:100A400000BF00BF704710B5014600220023002000
:100A50004A11012A02D1BA4C236806E0022A02D1C7
:100A6000B74C236A01E0B64C636A01F01F0201240F
:100A700094401C400CB1012000E0002010BD38B5AE
:100A8000002000900024002500BF3120FFF7DBFF8D
:100A900005460098401C00900098B0F5A06F01D06A
:100AA000002DF2D03120FFF7CEFF08B1012400E085
:100AB0000024204638BD01460020A14A106820F0DD
:100AC000F80040EAC10010607047A0490860704714
:100AD000024600209A4B586820F47C1042EA010339
:100AE0001843974B5860704798490866704701460D
:100AF0000020934A506820F003000843506070477C
:100B00008F48406800F00C007047014600208C4A76
:100B1000506820F0F0000843506070470146002004
:100B2000874A506820F4E0600843506070470146EF
:100B30000020834A506820F4605040EAC1005060B1
:100B4000704729B17E4A527A02437D4B5A7204E0C3
:100B50007B4A527A82437A4B5A7270477B49D8312A
:100B60000860704701460020754A506820F44040F4
:100B70000843506070470021714A20321170704A5A
:100B800082F82010012802D004280AD104E00121B3
:100B90006B4A2032117005E00521694A203211703C
:100BA00000E000BF00BF70476949086070476449B2
:100BB000096A0143624A1162704765494439086015
:100BC000704730B500210022002400235C4D6D6881
:100BD00005F00C0121B1042905D0082923D105E035
:100BE0005C4D056022E05B4D05601FE0544D6D6873
:100BF00005F47012524D6D6805F48034022505EB42
:100C000092421CB9544D554305600BE04C4D6D6844
:100C100005F400351DB1504D5543056002E04D4DC2
:100C20005543056002E04B4D056000BF00BF444DD9
:100C30006D6805F0F0010909484D6B5C0568DD4001
:100C400045603F4D6D6805F4E061090A434D6B5CFA
:100C50004568DD4085603A4D6D6805F46051C90A0C
:100C60003E4D6B5C4568DD40C560354D6D6805F4F3
:100C70004041890B3A4D6B5CC568B5FBF3F50561E6
:100C800030BD29B12E4A526902432D4B5A6104E00E
:100C90002B4A526982432A4B5A61704729B1284A2C
:100CA00092690243264B9A6104E0254A9269824385
:100CB000234B9A61704729B1214AD2690243204BE4
:100CC000DA6104E01E4AD26982431D4BDA61704743
:100CD00029B11B4AD2680243194BDA6004E0184A72
:100CE000D2688243164BDA60704729B1144A126900
:100CF0000243134B1A6104E0114A12698243104BFC
:100D00001A61704712494039086070470F49C8643A
:100D100070470B49C87170470948406A40F08070BD
:100D200007494862704701460020054A92680A4018
:100D30000AB1012000E00020704701498872704725
:100D4000001002400000FFF8FFFFF6FE00004242E4
:100D50008004424200127A0000093D001400002085
:100D60002400002010B50446FB48844209D101212B
:100D70008803FFF7ADFF00214FF48040FFF7A8FF85
:100D800032E0F648844209D101214804FFF7ADFF63
:100D900000214FF40030FFF7A8FF25E0F04884421F
:100DA00009D101218804FFF7A0FF00214FF4802022
:100DB000FFF79BFF18E0EB48844209D10121C804EA
:100DC000FFF793FF00214FF40020FFF78EFF0BE0A9
:100DD000E548844208D101210805FFF786FF00217C
:100DE0004FF48010FFF781FF10BD2DE9F04786B06A
:100DF00005460E460024A24600BFA1460027B08942
:100E000000B100BF2F462C8A4CF6FF700440F088DA
:100E100004432C82AC894EF6F3100440B08831892B
:100E20000843718908430443AC81AC8A4FF6FF4004
:100E30000440B0890443AC8201A8FFF7C2FEC64853
:100E4000874202D1DDF810A001E0DDF80CA0A889EE
:100E500000F4004040B10AEBCA0000EB0A10316810
:100E60004900B0FBF1F807E00AEBCA0000EB0A10FA
:100E700031688900B0FBF1F86420B8FBF0F00401A0
:100E80002009642101FB1089A88900F4004040B1C9
:100E9000322000EBC900B0FBF1F000F00700044382
:100EA00008E0322000EB09106421B0FBF1F000F003
:100EB0000F0004432C8106B0BDE8F0874FF41651B3
:100EC000016000218180C18001810C2141810021CC
:100ED0008181704710B502460020108A4FF2FF034F
:100EE00018400B884C8823438C882343CC882343A9
:100EF0001843108210BD0021018041808180C18093
:100F0000704721B1828942F40052828104E08289D3
:100F10004DF6FF731A4082817047F0B503460024F6
:100F200000260025002040F66A17B94200D100BF14
:100F30001846C1F3421401F01F06012707FA06F50F
:100F4000012C01D10C3004E0022C01D1103000E062
:100F500014301AB107682F43076002E00768AF43F7
:100F60000760F0BD1AB1838A0B43838202E0838A53
:100F70008B4383827047028A4FF6F0731A400282D5
:100F8000028A0A430282704782894FF2FF731A4035
:100F9000828182890A438281704721B1828942F02D
:100FA0000202828104E082894FF6FD731A40828139
:100FB0007047028A4FF6DF731A400282028A0A43A0
:100FC0000282704721B1028A42F48042028204E028
:100FD000028A4BF6FF731A4002827047C1F308027F
:100FE0008280704701468888C0F308007047818975
:100FF00041F0010181817047028BD2B20283028BE2
:1010000042EA012202837047028B02F47F4202838C
:10101000028B0A430283704721B1828A42F0200288
:10102000828204E0828A4FF6DF731A408282704720
:1010300021B1828A42F01002828204E0828A4FF655
:10104000EF731A408282704721B1828A42F008020F
:10105000828204E0828A4FF6F7731A4082827047D8
:1010600021B1828942F40042828103E08289C2F385
:101070000E028281704721B1828A42F4006282822C
:1010800004E0828A4FF2FF731A4082827047828A9C
:101090004FF6FB731A408282828A0A43828270472B
:1010A00021B1828A42F00202828204E0828A4FF6F3
:1010B000FD731A408282704702460020B1F5007F1E
:1010C00000D100BF13880B400BB1012000E00020CD
:1010D000704701F40072B2F5007F00D100BFCA432F
:1010E0000280704770B502460024002300250020CE
:1010F00040F66A16B14200D100BFC1F3421501F0BB
:101100001F03012606FA03F3012D02D1968933400D
:1011100006E0022D02D1168A334001E0968A334060
:101120000C12012606FA04F41688344013B10CB1EF
:10113000012000E0002070BD10B50022002340F621
:101140006A14A14200D100BF0A1201249440A3B244
:10115000DC43048010BD0000003801400044004022
:1011600000480040004C004000500040002044492E
:101170000860091D0860091D0860091D08604148D4
:101180003F4914310860704700213D498279002AA7
:101190003AD00A46126803689A430B461A600A1D41
:1011A000126803689A430B1D1A60027911440A6899
:1011B00003681A430A60324A0832126803689A4385
:1011C0002F4B08331A601A1D126803689A432C4B80
:1011D0000C331A604279102A0ED11A1F1268036864
:1011E0001A43274B08331A601A1D126803681A4302
:1011F000234B0C331A600DE02149427911440A68EF
:1012000003681A430A6005E0027911440A6803681A
:101210009A430A6070470021016001710C214171FD
:101220000021817170471649103109680143144A41
:1012300010321160704701460020114A14321268C2
:101240000A400AB1012000E0002070470C49143127
:1012500008607047014600200022094B1B6803EA22
:101260000102074B14331B680B4013B10AB1012074
:1012700000E0002070470249143108607047000008
:1012800000040140FFFF0F004FF0E020006920F054
:1012900004004FF0E0210861092036490870084633
:1012A000007800EB4001C1EBC0104FF6FF7101EA7E
:1012B000C000314908807047002120F07F402D4A4E
:1012C000127842434FF0E0235A6100229A610122D2
:1012D0001A6100BF4FF0E022116901F001021AB15A
:1012E00001F48032002AF5D000224FF0E0231A6189
:1012F0009A617047002100B9704720F07F401E4A74
:10130000128842434FF0E0235A6100229A61012281
:101310001A6100BF4FF0E022116901F001021AB119
:1013200001F48032002AF5D000224FF0E0231A6148
:101330009A6100BFE0E770B50446002600254FF42F
:10134000FA7094FBF0F0C6B24FF4FA7094FBF0F12F
:1013500000FB114085B205E04FF4FA70FFF7CAFFB9
:10136000701EC6B2002EF7D115B12846FFF7C2FF96
:1013700070BD0000280000202A00002010B586B0B3
:10138000044601210420FFF789FC01218803FFF7AF
:1013900085FC18208DF817004FF40070ADF814008C
:1013A00003208DF8160005A96B48FFF7BBF9042050
:1013B0008DF817000002ADF8140003208DF8160018
:1013C00005A96548FFF7AEF901940020ADF81000BB
:1013D0000C20ADF80E000020ADF80C00ADF80A00AE
:1013E000ADF8080001A95D48FFF7FFFC01215B484B
:1013F000FFF787FD012240F225515848FFF78DFD88
:1014000025208DF8000001208DF8030000208DF8C4
:10141000010002208DF802006846FFF7BAF806B016
:1014200010BD10B586B0044601210420FFF736FC3C
:1014300001214804FFF73FFC18208DF81700042015
:10144000ADF8140003208DF8160005A94248FFF7F7
:1014500069F904208DF817000820ADF81400032066
:101460008DF8160005A93C48FFF75CF901940020AF
:10147000ADF810000C20ADF80E000020ADF80C0007
:10148000ADF80A00ADF8080001A93548FFF7ADFC3A
:1014900001213348FFF735FD012240F22551304844
:1014A000FFF73BFD26208DF8000001208DF803009A
:1014B00000208DF801008DF802006846FFF769F8FA
:1014C00006B010BD2DE9F04107460C461546002632
:1014D0000DE014F8011B3846FFF780FD00BF4021E6
:1014E0003846FFF7E9FD0028F9D0701C86B2AE42FD
:1014F000EFDBBDE8F0810FB430B5CBB0054601ACF1
:1015000050A800904FF4947101A8009B4F9A00F0EE
:1015100027FB002000900BE014F8011B2846FFF782
:101520005DFD00BF40212846FFF7C6FD0028F9D029
:1015300020780028F0D14BB030BC5DF814FB10B51A
:1015400040F225510548FFF7CDFD18B12021034891
:10155000FFF7BFFD10BD000000080140003801404A
:101560000044004010B5044684F001024FF40051DD
:101570000D48FFF788F90D48047010BD08B501212A
:101580001020FFF78BFB10208DF803004002ADF810
:10159000000003208DF8020069460348FFF7C2F8F7
:1015A0000020FFF7DFFF08BD001001402C000020E5
:1015B0001FB501210420FFF771FB01210846FFF749
:1015C0006DFB48208DF80F000220ADF80C000320C1
:1015D0008DF80E0003A91E48FFF7A4F80121002092
:1015E000FFF7B6F90220019001208DF80A000020D3
:1015F0008DF808000C208DF8090001A8FFF7C4FD44
:1016000007208DF8000002208DF801008DF80200FF
:1016100001208DF803006846FEF7BBFF1FBD10B523
:101620000A20FFF767FE02210948FFF70EF950B9BB
:1016300008480078012803D10020FFF793FF02E05B
:101640000120FFF78FFF0220FFF715FE10BD0000FD
:10165000000801402C00002010B56648006820F00A
:101660000F00644908600846006840F00300086005
:10167000002201215F48FFF706F91420FFF73AFE28
:10168000012211465B48FFF7FEF81E20FFF714FE0B
:1016900010BD10B500245748006820F00F005549D0
:1016A00008600846006840F00800086004E0601C1C
:1016B000C4B20120FFF700FE01214E48FFF7C5F834
:1016C00008B1642CF3DB642C01DB012010BD002485
:1016D00004E0601CC4B20120FFF7EEFD0121454883
:1016E000FFF7B3F808B9642CF3DB642C01DB0120AD
:1016F000ECE70020EAE710B5002404E0601CC4B267
:101700000120FFF7D9FD01213A48FFF79EF808B103
:10171000642CF3DB002404E0601CC4B20120FFF75A
:10172000CBFD01213348FFF790F808B9642CF3DBB7
:101730002820FFF7C1FD01212E48FFF786F808B1E8
:10174000012010BD0020FCE770B50024002506E054
:101750006006040EFFF7CFFF0443681CC5B2082DD6
:10176000F6DB204670BD7CB505460E46FFF774FFDC
:10177000FFF78FFFF8B9002405E0FFF7E5FF0DF84C
:101780000400601CC4B2052CF7DB9DF800009DF836
:10179000011008449DF8021008449DF80310084405
:1017A0009DF80410884208D19DF8000030709DF823
:1017B0000200287001E001207CBD0020FCE708B594
:1017C00001210420FFF76AFA0120ADF80000102083
:1017D0008DF8030003208DF8020069460548FEF7E6
:1017E000A1FF01210348FFF74AF8FFF735FFFFF794
:1017F00050FF08BD0008014010B54FF4A060FEF78F
:10180000C3FEFFF741FD4FF4E130FFF7B7FD4FF4A2
:10181000E130FFF706FEFFF7CBFEFFF7AFFE07E074
:1018200018A11C48FFF767FE4FF47A70FFF783FD9D
:10183000FFF7C5FF0028F3D117A11648FFF75BFE9D
:1018400010BD00BF00BFFFF7D7FF00F0BFF80120B9
:10185000FFF788FE41F28830FFF76DFD0020FFF7AB
:1018600081FE0EE011491248FFF77DFF0F48037813
:101870000F4802780FA10748FFF73DFE0A20FFF747
:101880005AFDEFE74448543131204572726F72209F
:101890000D0A0000003801402048617264776172CF
:1018A0006520696E6974204F4B0D0A002E000020E0
:1018B0002D00002050342A2A2A2A2A74656D7020AF
:1018C0002564202C68756D692025640D0A000000D0
:1018D00010B54FF400716F4800F0D7FA00206E4940
:1018E000088010BD6C48008808B9012070476A481C
:1018F00000886A490988884203D100206649088027
:10190000F4E765480088654908800120EEE72DE985
:10191000F04104460D46C826204600F097FA87B2EB
:101920003A4621465E48FFF7CDFD0FE0FFF7DAFFAC
:1019300048B92946574800F077FA20B1FFF7C8FFA9
:101940000020BDE8F0810A20FFF7D4FC301EA6F18C
:101950000101CEB2EAD10120F3E730B589B00446E7
:101960000D46FFF7B5FF2A464EA101A800F012F977
:1019700050A101A8FFF7CBFF20B92A4621464848CD
:10198000FFF7A0FD09B030BD70B50546002400BFCB
:10199000FFF7A8FF80B948A13E4800F045FA044689
:1019A00054B13A21204600F035FA044614B1641CC3
:1019B000204670BD0020FCE70520FFF79BFC281E99
:1019C000A5F101018DB2E3D100BFF2E710B5FFF739
:1019D0007FFF3BA13C48FFF78EFD03E04FF4FA7018
:1019E000FFF788FC39A13AA0FFF791FF0028F5D155
:1019F00039A13548FFF77FFD03E04FF4FA70FFF798
:101A000079FC32A137A0FFF782FF0028F5D139A178
:101A10002D48FFF770FD03E04FF4FA70FFF76AFC02
:101A20002AA138A0FFF773FF0028F5D139A1264875
:101A3000FFF761FD03E04FF4FA70FFF75BFC38A19C
:101A400039A0FFF764FF0028F5D13FA11E48FFF73A
:101A500052FD10BD10B540F225511148FFF742FB71
:101A6000B8B10D480088B0F5007F02D300200A49C4
:101A700008800B48001D0088C1B207480288008812
:101A8000401C054B18800348815420210448FFF76F
:101A900020FB10BD34000020300000203200002068
:101AA0000044004041542B43495053454E443D258A
:101AB000640D0A003E0000004950442C0000000064
:101AC000312E2041540D0A00003801404F4B0000D8
:101AD00041540D0A00000000322E2043574D4F4460
:101AE000450D0A0041542B43574D4F44453D310DA0
:101AF0000A000000332E2041542B435744484350E2
:101B00000D0A000041542B4357444843503D312CAB
:101B1000310D0A00342E2043574A41500D0A00006F
:101B2000474F54204950000041542B43574A4150DD
:101B30003D224D7957696669222C22313233343582
:101B4000363738220D0A0000352E204553503832E2
:101B5000363620496E6974204F4B0D0A0000000094
:101B60007CB51D4616460C00009001D02044401E56
:101B7000074B7B442A4669460190304600F07DFAC7
:101B800005461CB10020694600F08AFA28467CBD53
:101B9000350500000FB41CB5084B06AA7B44694606
:101BA0000090059800F069FA04460020694600F0AC
:101BB00077FA20461CBC5DF814FB0000010500000C
:101BC00070B50C460546012A05D02878800600D558
:101BD000EA69002302E0012305E05B1C934202D284
:101BE000E05C0028F9D1A869E618C01AA861286A43
:101BF00018442862284600F094F904E0D5E9012150
:101C000014F8010B9047B442F8D3284600F09FF92E
:101C100070BD00002DE9F0410646002410687529CA
:101C2000314616A510D000F0A3F9002802DA404290
:101C300013A507E031688A0701D512A502E049071C
:101C400004D511A5012401E000F09BF900210A222E
:101C500006F1240709E0B0FBF2FCB0FBF2F302FB53
:101C60001C00303078541846491C0028F3D1234614
:101C70002A463046BDE8F04100F08CB90000000073
:101C80002D0000002B000000200000002DE9F05F77
:101C9000894604464FF0000ADFF874B1FB44C0F8EF
:101CA00020A02046E1688847002874D0252806D067
:101CB000D4E901219047206A401C2062F1E7002608
:101CC0005F462046E16888472028054607DB312D1E
:101CD00005D2781910F8200C08B10643F1E7B007D7
:101CE00001D526F00406C4F81CA00027C4F818A0EB
:101CF0002A2D09D0284601F0B3FA38B304EB87083F
:101D0000303DC8F8185019E059F8041B204604EB80
:101D100087029161E1688847012F054618D1E06983
:101D2000002820DA26F020061DE0D8F8180000EB85
:101D3000800005EB40003038C8F818002046E16804
:101D40008847054601F08CFA0028EED1012F0AD011
:101D50002E2D08D12046E16888477F1C0546022FBA
:101D600046F02006C4DBA069002803DA404246F0B2
:101D70000106A061F00701D026F010066C2D0BD0F3
:101D8000682D09D04C2D39D06A2D35D0742D35D021
:101D90007A2D33D016E038E0E1682F462046884798
:101DA000B842054609D16C2F26D04FF48060E16817
:101DB000064320468847054604E06C2F1AD04FF4AE
:101DC000807006430DB3A5F14100192802D82035D3
:101DD00046F400664A462946204626604E46FEF7EF
:101DE000BFF980B101280BD0F61D26F0070000F1E5
:101DF000080956E74020E4E78020D8E70020D6E72E
:101E000006F104094DE7284652E7206ABDE8F09F35
:101E10002C160000401ECAB210F8011F8A4202D0E0
:101E20000029F9D10020704730B505460B462A46F7
:101E300013F8014B12F8010B08B1A042F8D01CB105
:101E4000002802D06D1CF1E7284630BD10B5431CB8
:101E500002E010F8011B71B18107FAD14FF0013295
:101E600002C88C1A8C4314EAC211F9D0C01A0A06AF
:101E700003D0C01E10BDC01A10BD0A0401D0801EC0
:101E800010BD0902FCD0401E10BD4FF00002042915
:101E9000C0F0128010F0030C00F01B80CCF1040C99
:101EA000BCF1020F18BF00F8012BA8BF20F8022BCD
:101EB000A1EB0C0100F00DB85FEAC17C24BF00F873
:101EC000012B00F8012B48BF00F8012B70474FF0A1
:101ED000000200B5134694469646203922BFA0E87A
:101EE0000C50A0E80C50B1F12001BFF4F7AF090786
:101EF00028BFA0E80C5048BF0CC05DF804EB890077
:101F000028BF40F8042B08BF704748BF20F8022BB9
:101F100011F0804F18BF00F8012B704770477047D1
:101F2000704770B5044685690068C10601D5302642
:101F300000E02026C00707D070BDD4E9012130465B
:101F40009047206A401C20626D1EF6D570BD70B5AA
:101F5000044685690078C00707D170BDD4E9012126
:101F600020209047206A401C20626D1EF6D570BD6F
:101F700009684A0501D540B27047C905FCD500B2D1
:101F8000704709684A0501D5C0B27047C905FCD53C
:101F900080B270472DE9F0470D46994692460446B7
:101FA00000F124080168880604D5E06921F01001D9
:101FB000216000E00120A84201DD471B00E000276E
:101FC000A1697A1902EB0900081AA0612078C006FD
:101FD00002D42046FFF7A5FF002608E0D4E901213E
:101FE0001AF806009047206A401C761C20624E4575
:101FF000F4DB2078C0060AD52046FFF792FF06E002
:10200000D4E9012130209047206A401C2062381E0C
:10201000A7F10107F4DC07E0D4E9012118F8050075
:102020009047206A401C2062281EA5F10105F3DCC0
:102030002046FFF78CFF2078000602D50220BDE87D
:10204000F0870120FBE711680268006A530501D59B
:1020500008700AE0D30501D5088006E0130603D511
:10206000C217C1E9000200E00860012070470000CB
:1020700001694A1C02610878704700B58FB0CDE94C
:1020800001310021059105497944CDE9031011463C
:102090006846FFF7FBFD0FB000BD0000E5FFFFFF46
:1020A0000A6802F8010B0A607047D1E900239A42DE
:1020B00002D2531C0B601070704710B5436913B106
:1020C000AFF3008001E0FFF77BFD012010BD127827
:1020D00000F124010A7000224A700122EDE7116824
:1020E0004FF0FF32E9E700002DE9FF5F15468A4611
:1020F0000446DFF8AC80F8440027D8E900103E46DB
:10210000CDE9001010E03AF816106A4602A800F077
:102110007FFB411C07D02178890603D5E269391875
:1021200091420DD80744761C2078800602D5E069DC
:10213000B84205DDAE42E6DB3AF816000028E2D1EF
:10214000A069C01BA0612046FFF7EBFED8E9001094
:10215000CDE90010002017E03AF818106A4602A8EE
:1021600000F056FBB0F1FF3F81460BD000250DF18A
:10217000080B05E0D4E901211BF8050090476D1C10
:102180004D45F7D308F10100B0428046E4DB206AF8
:10219000384420622046FFF7DAFEBDE8FF9F0000CA
:1021A000E61100002DE9F0418046D21D22F0070221
:1021B0000025D2E90002F52915A614D0011E72F1FE
:1021C000000106DA0023D0EB030063EB020211A644
:1021D00008E0D8F800108B0701D50FA602E04907E8
:1021E00001D50EA601251146002408F1240704E0BC
:1021F00000F0A4F830323A55641C50EA0102F7D1DD
:102200002B46324621464046BDE8F041FFF7C2BEAC
:10221000000000002D0000002B0000002000000046
:1022200030B4002100F1240408E002F00705D208D0
:10223000303542EA4372DB086554491C52EA030513
:10224000F3D10468002310A2250707D5A40600D403
:1022500021B1C46901230DA2641EC46130BCFFF723
:1022600099BE10B5044621461068FFF78AFE024663
:102270002046BDE810400023D2E7D21D22F007011E
:10228000D1E90023CCE7000000000000300000008E
:10229000F0B40D460188090502D5214C7C4402E0CA
:1022A0001F4C7C440E34002100F1240608E002F0AB
:1022B0000F071209E75D42EA03721B097754491CB4
:1022C00052EA0307F3D102780023120704D5702DD8
:1022D00006D009B1022311342246F0BCFFF75ABEE2
:1022E00001231034F8E770B504460D462146106806
:1022F000FFF747FE024629462046BDE8704000230E
:10230000C6E7D21D22F00703D3E90023C0E7036824
:10231000126843F0200303600823C3610023B7E77A
:1023200048100000004870473402002010B500F04B
:10233000B5FA001D10BD00BF390F000030B5B0F177
:102340000A024FEA900E71F100034EEA817EB0EB73
:102350000E0061EB91014FEA101E4EEA017E10EB78
:102360000E0041EB11114FEA102E4EEA016E10EBF8
:102370000E0041EB11214FEA104E4EEA014E10EBD8
:102380000E0041EB1141401841F100014FEAD0002D
:1023900040EA41704FEAD10110EB80054FEA810419
:1023A00044EA907444EB01046D1944EB0404521B9D
:1023B000A3414FF0000348BF0A3200D530BD401C96
:1023C00041F1000130BD70472DE9FF4F0C461E461C
:1023D0004FF0FF378BB0D2E90001DDF860800A9042
:1023E0008A46C1F30A5505B93D46002108464FF01B
:1023F0000000BAF1000F00F4400005DA00EB8000A5
:102400004FF4400101EA50004FEA9059B9F1010F31
:1024100000DDB9460A9850EA4A000ED044F6105042
:10242000A5F2FF3545432F14B8F1000F1ED07542B9
:10243000291E1EDDC9F100021CE0B8F1010F4FF0AA
:10244000000001D0302103E0F24305E02154401C9C
:10245000B042FBDB30460022002121540B99C1F829
:102460000880C1E900200FB0BDE8F08FBD1B6D1CD6
:10247000DEE74A4600DA694206A800F053FA06ABE6
:1024800093E8070003AB83E8070050460A9900F081
:102490000BFB8DE80700A0F500501F380090039853
:1024A000002D0ADD42F21F014A460844002303A919
:1024B0000390684600F074FD09E0A0F500504A461C
:1024C0001F38002303A90390684600F07EFD8DE8C5
:1024D00007000004000C03D04FF0FF30410800E07B
:1024E0001046B8F1000F03D00022009215461EE0FE
:1024F000751E05D4FFF722FF303262556D1EF9D5E7
:10250000B3460122084302D000227F1C04E0207859
:10251000302801D100227F1E002A099784D01DE0B7
:10252000112D07DAFFF70AFF303262556D1C50EAB1
:102530000102F5D1084302D00098C8B10EE0002195
:10254000681E05E0235C625C63542254401E491CF3
:102550008142F7DBAB46A81B401E0990002004F81F
:102560000B000B98099AC0F80880C0E9002B7AE7A5
:1025700011264FF0000857E72DE9F04F8846044632
:10258000D21D22F0070191B0D1E90001CDE90A0185
:1025900000F052FE02460B98C00F01D02D2007E03C
:1025A0002068810701D52B2002E0202101EAC0002C
:1025B000032A099001D0072A05DB0346414620463D
:1025C00000F070F90BE12078800601D5E06900E0A9
:1025D0000620B8F1650F814606D0B8F1660F18D015
:1025E000B8F1670F70D131E00020B9F1110F009000
:1025F00001DB112301E009F101030AAA01A90CA8DA
:10260000FFF7E2FEDDE90C70002609F101058346C3
:1026100047E001204B4600904FF000470AAA01A96D
:102620000CA8FFF7D1FEDDE90DB00C995D46002640
:1026300010B909F101000D18B9EB050003D4C0F180
:10264000FF3609F10105A5EB09002BE0B9F1010FF7
:1026500001DA4FF001090020B9F1110F009048464E
:1026600001DD112300E003460AAA01A90CA8FFF727
:10267000ABFEDDE90C704D4600268346207800074E
:102680000AD4AB4500DA5D4601A8012D04DD4119ED
:1026900011F8011C302907D04F4502DA17F1040F59
:1026A00004DA012082460FE06D1EEEE7002F02DC07
:1026B000ED1B3E4403E0781CA84200DD7D1CB81BE6
:1026C00000F1010A4FF000472078000703D4AA4523
:1026D00001DB4FF0FF3A0021B7F1004F0DF1430845
:1026E0008DF8431024D002202B23002F01DA7F42E3
:1026F0002D230A21021EA0F1010000DC5FB197FB2F
:10270000F1FC97FBF1F201FB1C7C17460CF1300C3D
:1027100008F801CDEEE7A8F1010003702188090552
:1027200001D5452100E06521A0F1010800F8011C58
:1027300009980FA9A1EB0807FF1D00B1012041195D
:1027400001EBEA70A1693844081A401EA0612078A4
:10275000C00602D42046FFF7E4FB099828B1D4E96B
:1027600001219047206A401C20622078C00622D5B3
:102770002046FFF7D6FB1EE0002E04DBB34502DD4A
:1027800001A8805D00E03020D4E901219047206A53
:10279000401C2062761CAAF101005FEA000A0AD1FF
:1027A00000F07CF8C0680168405CD4E901219047E2
:1027B000206A401C2062281EA5F10105DCDC07E030
:1027C000D4E9012118F8010B9047206A401C2062CF
:1027D000381EA7F10107F3DC2046FFF7B8FB032002
:1027E00011B041E610B5436913B1AFF3008001E0C9
:1027F000FFF77AFC012010BD128800F124018284C9
:102800000022C2840122EDE711684FF0FF32E9E7B0
:1028100070B516460C460546FFF788FD036893F829
:102820000101012806D0FF2C0FD8185D68B10120E6
:102830002C7070BDD3F807013246214603F207130E
:1028400003442846BDE8704018474FF0FF3070BD84
:1028500070477546FFF766FDAE460500694653466C
:1028600020F00700854618B020B5FDF77BFEBDE8D7
:1028700020404FF000064FF000074FF000084FF0E7
:10288000000B21F00701AC46ACE8C009ACE8C00978
:10289000ACE8C009ACE8C0098D46704700487047F5
:1028A000540200202DE9F0411F460446032601682A
:1028B000072A01F4006004DB08B116A505E016A59F
:1028C00003E008B115A500E015A521F01000206077
:1028D000A069C01EA0610FB1401EA0612046FFF795
:1028E00020FB4FB1D4E9012138469047206A401CB3
:1028F0002062C01C206206E0206AFAE7D4E90121C8
:1029000015F8010B9047761EF8D22046FFF71FFB03
:10291000BDE8F0814E414E006E616E00494E4600AA
:10292000696E66002DE9F047814616468AB0354843
:1029300078440DC88DE80D0032487844801C03AC03
:102940000DC884E80D0041F69B300844372190FB08
:10295000F1F290FBF1F5A5F1800501FB12041B3C9F
:1029600002D56442012000E00020DFF898A08046F4
:102970000027FA44AAF1BE0A0EE0E0070AD0324668
:10298000684607EB470101230AEB810100F01DFBBC
:102990008DE8070064107F1C002CEED1194F7F4496
:1029A000AE3F19E0E80715D007EB04100DF1180A47
:1029B00090E80E008AE80E00C068F04201D1981934
:1029C00008903246012306A903A800F0FEFA03ABE3
:1029D00083E807006D10641C002DE3D14FF0010364
:1029E00032466946B8F1000F03A802D000F0D8FAC9
:1029F00001E000F0EAFAC9E90001C9F808200AB0CC
:102A0000BDE8F087580A000010B50446AFF3008017
:102A10002046BDE81040FDF706BC00000149182023
:102A2000ABBEFEE7260002004FF0013C50F8042B3D
:102A300051F8043B9A4221D1A2EB0C03934313EAD1
:102A4000CC1317D150F8042B51F8043B9A4215D1FE
:102A5000A2EB0C03934313EACC130BD150F8042BD5
:102A600051F8043B9A4209D1A2EB0C03934313EAB9
:102A7000CC13DBD04FF00000704700BFD01A01BA72
:102A8000B1FA81F101F0180122FA01F0CB40C1F155
:102A90002001DBB2C0B2C01A2CFA01F3D11A914363
:102AA00011EAC311E6D170475FEA400C08BF91F00C
:102AB000000F4FEA8C234FEAC12243EA51514FEAFB
:102AC0001C5018BF00F5F0404FEA300018BF41F02D
:102AD00000415FEA6C5C00F02980BCF1FF3F08BF59
:102AE00040F080407047130C06BF12044FF0100CEA
:102AF0004FF0000C130E04BF12020CF1080C130F60
:102B000004BF12010CF1040C930F04BF92000CF1EE
:102B1000020CD30F04BF52000CF1010C11464FF010
:102B20000002A0F11F00A0EB0C00704711F0004F55
:102B300008BF704731F000413FF4D5AF0B0C06BF22
:102B400009044FF0100C4FF0000C0B0E04BF0902EB
:102B50000CF1080C0B0F04BF09010CF1040C8B0FD6
:102B600004BF89000CF1020CCB0F04BF49000CF12B
:102B7000010CCCF12003A0EB0C0022FA03F302FAC3
:102B80000CF241EA030100F10100704720F07F4C94
:102B900080EA030023F07F47ACEB070303F57C5387
:102BA00000F0004003F1FF032DE980494FEA154B87
:102BB00009B44FEA144325EA0B4E24EA03480FF206
:102BC000042606EB132749083E785FEA320203FB2E
:102BD0000667C7F5000707FB06F64FEA54374FEACA
:102BE000D64606F1020607FB066CCCF1005C4FEA04
:102BF0001C472CEA074C07FB06F40CFB06F504EB1C
:102C000015464FEA961634BF00204FF000404FEAB9
:102C1000D13706FB07FC4FEA1C4C0CFB0BF7D21B11
:102C200003FB0CF761EB07010CFB0EF7B0EB074061
:102C300072EB17420CFB08F734BFA2EB0742B2EB72
:102C4000074261EB17414FEA0C444FEA910706FB3C
:102C500007FC4FEA1C4C0CFB0BF7B0EBC74072EBC8
:102C6000573203FB0CF734BFA2EBC742B2EBC742AB
:102C700061EB57310CFB0EF7B0EBC70072EB5772EC
:102C80000CFB08F734BFA2EBC702B2EBC70261EB43
:102C90005771039F4FEA816141EA921104EBCC0422
:102CA0004FEAD1374FEA826206FB07FC42EA9012F4
:102CB0004FEA80604FEA1C4C0CFB0BF7D21B03FB66
:102CC0000CF761EB07010CFB0EF7B0EB074072EB62
:102CD00017420CFB08F734BFA2EB0742B2EB0742E6
:102CE00061EB17414FEA8C554FEA910704EB9C24A6
:102CF00006FB07FC4FEA1C4C0CFB0BF7B0EBC74084
:102D000072EB573203FB0CF734BFA2EBC742B2EBB6
:102D1000C74261EB57310CFB0EF7B0EBC70072EB0B
:102D200057720CFB08F734BFA2EBC702B2EBC70225
:102D300061EB577115EB4C254FEA816141EA921125
:102D40004FEA82624FEAD13742EA901206FB07FC53
:102D500044F100044FEA80604FEA1C4C0CFB0BF777
:102D6000D21B03FB0CF761EB07010CFB0EF7B0EB7A
:102D7000074072EB17420CFB08F734BFA2EB074287
:102D8000B2EB074261EB174115EB1C154FEA81319D
:102D900041EA92414FEA823242EA90424FEA803061
:102DA0004FEA0C7644F1000448EA03434EEA0B482C
:102DB0004FF0000EB2EB080C71EB030724BF624624
:102DC00039464EEB0E0E4FF0000B001852414941B0
:102DD0004BEB0B0BB2EB080C71EB03077BF1000B19
:102DE00024BF624639464EEB0E0E4FF0000B001822
:102DF000524149414BEB0B0BB2EB080C71EB030753
:102E00007BF1000B24BF624639464EEB0E0E51EAB1
:102E1000020718BF46F0010616EB0E7655F10002C8
:102E200054F1000103D5BDE88901BDE80088BDE883
:102E30008901BDE80048B619524141EB0101A3F1F7
:102E40000103704780807F7E7D7C7B7A79787776FE
:102E500076757473727171706F6E6E6D6C6C6B6A77
:102E60006A69686867666665646463636261616015
:102E7000605F5F5E5E5D5D5C5C5B5B5A5A59595892
:102E800058575756565555555454535352525251FC
:102E9000515050504F4F4F4E4E4D4D4D4C4C4C4B52
:102EA0004B4B4A4A4A494949484848474747474699
:102EB00046464545454444444443434343424242D5
:102EC00042414141002B9C4630D477002BD01CB5A9
:102ED0004FEA370703B44FF010004FF01001BAF17A
:102EE000000F06D0BCF1000FDCBF40F0080040F03E
:102EF00008014FF000000FBCBDE810400BF1010BC2
:102F0000BBF1010F08BF5FEA170722BF12F10102F0
:102F100011F101014FF0004143F1000300F00040C6
:102F200043EA00007047F9D35708D0E746EA06465F
:102F300013F1400F4FEA16461FDD13F1200FDFBFDC
:102F400016430A46002120335B42BED0C3F120075E
:102F500046EA064602FA07F74FEA164646EA070629
:102F6000C3F1200722FA03F201FA07F721FA03F16D
:102F70004FF0000342EA0702A7E746EA020646EAE4
:102F800006464FEA164646EA0106BCBF46EA064632
:102F9000360C4FF000034FF000024FF0000194E7B1
:102FA0002DE9804C9A46934670B491E8380007C8E2
:102FB00031EA400C48BF34EA430C03D5FFF7E6FD85
:102FC000FFF780FFF0BCBDE8008C2DE9804C9A46ED
:102FD000934670B491E8380007C810F0804F08BFDE
:102FE00013F0804F03D100F005F8FFF76BFFF0BC42
:102FF000BDE8008C20F07F4780EA030023F07F4C7F
:1030000007EB0C03A3F57C5300F00040A3F1FE0393
:1030100092F0000F00F0B38095F0000F00F0778081
:103020002DE901494FEA11404FEA144621EA0048D0
:1030300000FB06FC24EA064708FB06F607FB08F837
:1030400000FB07F718EB06484CEB164C4FEA124B07
:1030500018EB07484FEA15464CEB174022EA0B4E97
:103060000BFB06FC25EA06470EFB06F607FB0EFEE9
:103070000BFB07F71EEB064E4CEB164C4FF0000611
:103080001EEB074E4CEB174B18EB0B0840F1000002
:1030900018EB0E0B58EB000840F100008F1A4FF0B0
:1030A00000013CBFC943661B14BFB5EB040C0021F3
:1030B0003CBFC943F61B4FEA17444EEA8E0E27EA7F
:1030C00004454FEA1C4704FB07622CEA074C05FB4A
:1030D00007F70CFB05F604FB0CFC16EB074642EB6E
:1030E000174216EB0C4642EB1C421BEB060658EB54
:1030F0000202414146EA9E0601D5BDE80189B619A2
:10310000524141EB0101A3F10103BDE801894FEAFE
:1031100014454FEA114724EA054621EA074C05FB0E
:1031200007F406FB07F70CFB06F105FB0CFC11EBA3
:10313000074144EB17444FEA124711EB0C4144EBB3
:103140001C4422EA074C05FB07F206FB07F70CFBC1
:1031500006F605FB0CFC16EB074642EB174216EB96
:103160000C4642EB1C456A1854F1000148BF7047F9
:10317000B619524141EB0101A3F10103704795F0EB
:10318000000F37D04FEA11424FEA144721EA0246B6
:1031900024EA074C02FB07F106FB07F70CFB06F4D9
:1031A00002FB0CFC14EB074441EB17414FEA1547B7
:1031B00014EB0C4441EB1C4125EA074C02FB07F5DC
:1031C00006FB07F70CFB06F602FB0CFC16EB0746AA
:1031D00045EB174516EB0C4645EB1C42121951F115
:1031E000000148BF7047B619524141EB0101A3F1FC
:1031F000010370474FEA14454FEA114724EA054698
:1032000021EA074C05FB07F106FB07F70CFB06F26A
:103210004FF0000605FB0CFC12EB074241EB174197
:1032200012EB0C4251EB1C4148BF7047921841EB26
:103230000101A3F101037047490050EAC12018BF02
:1032400004204A0D18BF40F0010040F2FF72B2EBBB
:10325000515F08BF40F00200012808BF05207047F9
:1032600030380A2801D20120704700207047000042
:1032700010B500290AD00878002807D005487844FE
:10328000FFF7D2FB002801D0002010BD024878448F
:1032900010BD0000460100003E01000010B50029ED
:1032A0000AD00878002807D005487844FFF7BCFB0F
:1032B000002801D0002010BD0248784410BD000055
:1032C0002A02000022020000FFF756B9040000089D
:1032D00000000000000000020001000010000000DB
:1032E0000000000000000000303132333435363742
:1032F000383941424344454640305800303132333A
:103300003435363738396162636465664030780039
:1033100002400000000000A0000000000540000086
:10332000000000C8000000000C4000000000409CAD
:1033300000000000194000000020BCBE000000009A
:1033400034400000BFC91B8E00000004B5400000DF
:10335000504BCFD06607E2CF010000006C41000067
:103360003E8251AADFEEA73401000000D9420000DE
:10337000DCB5A0E23A301F97FFFFFFFFB445000025
:10338000FD25A0C8E9A3C14FFFFFFFFFFF3F0000DD
:103390000000008000000000FF3F000000000080EF
:1033A00000000000F034000800000020340000009D
:1033B00028010008243500083400002064080000BB
:1033C000440100081001000043000000F8FFFFFF67
:1033D0000040404040404040404041414141414028
:1033E00040404040404040404040404040404040DD
:1033F000400502020202020202020202020202026C
:103400000220202020202020202020020202020270
:1034100002029090909090901010101010101010C8
:1034200010101010101010101010101002020202D4
:103430000202888888888888080808080808080818
:103440000808080808080808080808080202020214
:10345000400000000000000000000000000000002C
:10346000000000000000000000000000000000005C
:10347000000000000000000000000000000000004C
:10348000000000000000000000000000000000003C
:10349000000000000000000000000000000000002C
:1034A000000000000000000000000000000000001C
:1034B000000000000000000000000000000000000C
:1034C00000000000000000000000000000000000FC
:1034D000000000001C00000043000000F8FFFFFF98
:1034E0000C0000000E0000000F0000002E00000085
:1034F00000A24A04000000000000000001020304D2
:103500000607080900000000010203040102030489
:103510000607080902040608000000000000000079
:0435200000000000A7
:04000005080000ED02
:00000001FF
