:020000040800F2
:10000000D80C0020510500083D0200083F020008FE
:100010004B020008570200086302000800000000BD
:100020000000000000000000000000006F02000857
:100030007102000800000000670500087302000854
:100040006B0500086B0500086B05000877020008C7
:100050006B0500086B0500087502000827160008EC
:100060006B0500086B0500086B0500086B050008B0
:100070006B0500086B0500086B0500086B050008A0
:100080006B0500086B0500086B0500086B05000890
:100090006B0500086B0500086B0500086B05000880
:1000A0006B0500086B0500086B0500086B05000870
:1000B0006B0500086B0500086B0500086B05000860
:1000C0006B0500086B0500086B0500086B05000850
:1000D0006B05000847150008993C00086B050008EF
:1000E0006B0500086B0500086B05000800F002F8BE
:1000F00000F094F80AA090E8000C82448344AAF12E
:100100000107DA4501D100F089F8AFF2090EBAE82B
:100110000F0013F0010F18BFFB1A43F0010318473B
:100120002862000048620000103A24BF78C878C1F5
:10013000FAD8520724BF30C830C144BF04680C60ED
:10014000704700000023002400250026103A28BF35
:1001500078C1FBD8520728BF30C148BF0B60704739
:100160006E2904F02383702904F08384662905F046
:100170008B87652905F08887672905F085876129C0
:10018000AFF3008003681B0A28BF41F08001692992
:1001900003F0D486642903F0D186752903F0CE8656
:1001A0006F2904F01084782904F04F84E92904F0C1
:1001B000AB83E42904F0A883F52904F0A583EF2993
:1001C00004F00D84F82904F04E840368DB0928BF8D
:1001D00041F08001632904F02C83732904F03183FA
:1001E000E32904F08C87F32904F0918700207047FD
:1001F0001FB59DE8030004F011FA05F0E3F90400CF
:100200000020002105F014FF401C60600020002148
:1002100005F024FFE0601FBD10B510BD05F0ADF97D
:100220001146FFF7E5FF01F010FB05F081FA03B47A
:10023000FFF7F2FF03BC05F0B1FA000070470EA112
:100240001C4801F05CF900BFFEE71BA1194801F052
:1002500056F900BFFEE727A1164801F050F900BF8C
:10026000FEE733A1134801F04AF900BFFEE77047EB
:1002700070477047704770470D0A2A2A2A2A2A2A8F
:100280002A2A2A2A2A2A2A2A2A2A2A2A2A48617231
:10029000644661756C745F48616E646C65722A2A8D
:1002A0002A2A2A2A2A2A2A2A2A2A2A2A2A2A2A2AAE
:1002B0002A0D0A00003801400D0A2A2A2A2A2A2A71
:1002C0002A2A2A2A2A2A2A2A2A2A2A2A2A4D656DED
:1002D0004D616E6167655F48616E646C65722A2A64
:1002E0002A2A2A2A2A2A2A2A2A2A2A2A2A2A2A2A6E
:1002F0002A0D0A000D0A2A2A2A2A2A2A2A2A2A2A02
:100300002A2A2A2A2A2A2A2A2A4275734661756CC1
:10031000745F48616E646C65722A2A2A2A2A2A2A26
:100320002A2A2A2A2A2A2A2A2A2A2A2A0D0A0000BE
:100330000D0A2A2A2A2A2A2A2A2A2A2A2A2A2A2A5A
:100340002A2A2A2A2A55736167654661756C745F8B
:1003500048616E646C65722A2A2A2A2A2A2A2A2A65
:100360002A2A2A2A2A2A2A2A2A2A0D0A00000000D2
:100370000CB50020019000906C48006840F480307B
:100380006A49086000BF6948006800F400300090C6
:100390000198401C0190009818B90198B0F5A06F21
:1003A000F1D16248006800F4003010B101200090E3
:1003B00001E0002000900098012843D15C480068CB
:1003C00040F010005A4908600846006820F0030019
:1003D00008600846006840F0020008605348406822
:1003E000524948600846406848600846406840F402
:1003F000806048600846406820F47C1048600846E9
:10040000406840F4E81048600846006840F080709A
:10041000086000BF4548006800F000700028F9D06F
:100420004248406820F00300404948600846406860
:1004300040F00200486000BF3C48406800F00C00FB
:100440000828F9D10CBD10B5FFF792FF10BD10B50B
:100450003648006840F001003449086008464068AA
:10046000344908403149486008460068324908402C
:100470002E4908600846006820F48020086008467D
:10048000406820F4FE0048604FF41F008860FFF7CA
:10049000DAFF4FF000602949086010BD10B5002157
:1004A00000200022214B5B6803F00C0121B10429DC
:1004B00006D0082928D107E0214B224C236027E0F1
:1004C0001F4B204C236023E0184B5B6803F4701033
:1004D000164B5B6803F48032022303EB904022B991
:1004E000194B4343174C23600DE0104B5B6803F43A
:1004F000003323B1144B4343124C236003E0104BF1
:100500004343104C236003E00D4B0E4C236000BFAF
:1005100000BF064B5B68C3F303130C4CE15C094B53
:100520001B68CB40074C236010BD00000010024048
:10053000002002400000FFF8FFFFF6FE08ED00E09B
:1005400000127A000000002000093D000400002095
:100550000948804709480047FEE7FEE7FEE7FEE757
:10056000FEE7FEE7FEE7FEE7FEE7FEE70448054993
:10057000054A064B704700004F040008ED000008D4
:10058000D8020020D80C0020D8040020D804002075
:1005900031490143314A1160704770B50021002391
:1005A0000F22C47804B32D4C246804F4E064C4F52D
:1005B000E064210AC1F10403CA40447804FA03F15B
:1005C0008478144021430901254C0678A15504780C
:1005D00004F01F050124AC4005786D11AD0005F154
:1005E000E025C5F8004109E0047804F01F05012466
:1005F000AC401C4D0678761145F8264070BD1A4A6D
:100600000A400243154B1B1F1A60704739B1134A49
:10061000121D12680243114B1B1D1A6006E00F4A9F
:10062000121D126882430D4B1B1D1A60704704286F
:1006300008D14FF0E021096941F004014FF0E022B8
:10064000116107E04FF0E021096921F004014FF04A
:10065000E0221161704700000000FA050CED00E097
:1006600000E400E080E100E080FFFF1F10B50446D9
:10067000CC48844208D10121042000F02DFB002148
:10068000042000F029FB46E0C748844208D101213C
:10069000082000F021FB0021082000F01DFB3AE0BB
:1006A000C248844208D10121102000F015FB00212E
:1006B000102000F011FB2EE0BD48844208D101213A
:1006C000202000F009FB0021202000F005FB22E0A3
:1006D000B848844208D10121402000F0FDFA0021F1
:1006E000402000F0F9FA16E0B348844208D1012115
:1006F000802000F0F1FA0021802000F0EDFA0AE0FD
:10070000AE48844207D10121801500F0E5FA0021AE
:10071000A01500F0E1FA10BD10B50121084600F067
:10072000DBFA0021012000F0D7FA10BD2DE9F041DD
:10073000024600250026002000230024002791F80F
:1007400003C00CF00F0591F803C00CF0100CBCF1C5
:10075000000F03D091F802C04CEA050591F800C0E3
:10076000BCF1000F31D0146800202BE04FF0010CD9
:100770000CFA00F3B1F800C00CEA03069E4220D147
:1007800083004FF00F0C0CFA03F7BC4305FA03FC8F
:100790004CEA040491F803C0BCF1280F06D14FF0D5
:1007A000010C0CFA00FCC2F814C00AE091F803C076
:1007B000BCF1480F05D14FF0010C0CFA00FCC2F857
:1007C00010C0401C0828D1D31460B1F800C0BCF19F
:1007D000FF0F34DD546800202EE000F1080C4FF0CC
:1007E000010808FA0CF3B1F800C00CEA03069E42B7
:1007F00021D183004FF00F0C0CFA03F7BC4305FA2C
:1008000003FC4CEA040491F803C0BCF1280F05D1A5
:1008100000F1080C08FA0CF8C2F8148091F803C033
:10082000BCF1480F07D100F1080C4FF0010808FA9D
:100830000CF8C2F81080401C0828CED35460BDE8E4
:10084000F0814FF6FF710180022181700421C17097
:1008500070470246002093680B400BB1012000E076
:10086000002070470146886880B270470246002029
:10087000D3680B400BB1012000E000207047014617
:10088000C86880B2704701617047416170470AB122
:10089000016100E041617047C16070474FF48032F0
:1008A0000A4382618161826182698269704702467E
:1008B0000020434B18684FF68073184040EA02103E
:1008C00008433F4B186070473E49C8617047F0B518
:1008D0000A46002300240021002500F00046B6F15E
:1008E000004F02D1364EF16901E0354E7168C0F318
:1008F000034583B200F44016B6F5401F08D121F03D
:1009000070612F4E766826F070662D4F7E6012E083
:1009100000F48016B6F5801F06D1032606FA05F40A
:10092000A14341F0706106E0460D360103FA06F678
:10093000B14341F0706122B1460D360103FA06F66B
:10094000314300F00046B6F1004F02D11C4EF16178
:1009500001E01B4E7160F0BD30B500228B071C0F0B
:100960000F2303FA04F2164B08338C1053F824308B
:100970009343134C08348D1044F8253023468C10D3
:1009800053F824308C07240F00FA04F423430C4C52
:1009900008348D1044F8253030BD0A49DC31086038
:1009A0007047000000080140000C014000100140A9
:1009B0000014014000180140001C014000200140CB
:1009C0000000014000002042DF48006840F00100C4
:1009D000DD49086008464068DC490840DA4948605B
:1009E00008460068DA490840D749086008460068A8
:1009F00020F4802008600846406820F4FE0048602B
:100A00004FF41F0088607047CF49096821F4803196
:100A1000CD4A11601146096821F480211160B0F5BA
:100A2000803F03D0B0F5802F0ED106E0C64909689B
:100A300041F48031C44A116007E0C349096841F4B8
:100A4000A021C14A116000E000BF00BF704710B58F
:100A500001460022002300204A11012A02D1BA4C8B
:100A6000236806E0022A02D1B74C236A01E0B64CA3
:100A7000636A01F01F02012494401C400CB1012064
:100A800000E0002010BD38B50020009000240025B3
:100A900000BF3120FFF7DBFF05460098401C0090A7
:100AA0000098B0F5A06F01D0002DF2D03120FFF7F3
:100AB000CEFF08B1012400E00024204638BD0146E5
:100AC0000020A14A106820F0F80040EAC100106040
:100AD0007047A04908607047024600209A4B58684A
:100AE00020F47C1042EA01031843974B586070478A
:100AF00098490866704701460020934A506820F0E4
:100B000003000843506070478F48406800F00C00B5
:100B10007047014600208C4A506820F0F0000843DE
:100B20005060704701460020874A506820F4E0601A
:100B300008435060704701460020834A506820F403
:100B4000605040EAC1005060704729B17E4A527A35
:100B500002437D4B5A7204E07B4A527A82437A4BBD
:100B60005A7270477B49D8310860704701460020AF
:100B7000754A506820F44040084350607047002197
:100B8000714A20321170704A82F82010012802D078
:100B900004280AD104E001216B4A2032117005E0DB
:100BA0000521694A2032117000E000BF00BF704784
:100BB0006949086070476449096A0143624A1162E1
:100BC0007047654944390860704730B500210022FC
:100BD000002400235C4D6D6805F00C0121B104294F
:100BE00005D0082923D105E05C4D056022E05B4D6E
:100BF00005601FE0544D6D6805F47012524D6D682C
:100C000005F48034022505EB92421CB9544D55433E
:100C100005600BE04C4D6D6805F400351DB1504D7D
:100C20005543056002E04D4D5543056002E04B4DD4
:100C3000056000BF00BF444D6D6805F0F001090973
:100C4000484D6B5C0568DD4045603F4D6D6805F4BF
:100C5000E061090A434D6B5C4568DD4085603A4DB3
:100C60006D6805F46051C90A3E4D6B5C4568DD4016
:100C7000C560354D6D6805F44041890B3A4D6B5C9C
:100C8000C568B5FBF3F5056130BD29B12E4A52693F
:100C900002432D4B5A6104E02B4A526982432A4B8E
:100CA0005A61704729B1284A92690243264B9A61DA
:100CB00004E0254A92698243234B9A61704729B127
:100CC000214AD2690243204BDA6104E01E4AD2690C
:100CD00082431D4BDA61704729B11B4AD268024337
:100CE000194BDA6004E0184AD2688243164BDA6086
:100CF000704729B1144A12690243134B1A6104E088
:100D0000114A12698243104B1A61704712494039E7
:100D1000086070470F49C86470470B49C871704735
:100D20000948406A40F080700749486270470146B0
:100D30000020054A92680A400AB1012000E0002024
:100D40007047014988727047001002400000FFF8A8
:100D5000FFFFF6FE000042428004424200127A0089
:100D600000093D00140000202400002010B50446B6
:100D7000FB48844209D101218803FFF7ADFF002120
:100D80004FF48040FFF7A8FF32E0F648844209D1D3
:100D900001214804FFF7ADFF00214FF40030FFF7B9
:100DA000A8FF25E0F048844209D101218804FFF71B
:100DB000A0FF00214FF48020FFF79BFF18E0EB48D5
:100DC000844209D10121C804FFF793FF00214FF4A9
:100DD0000020FFF78EFF0BE0E548844208D1012197
:100DE0000805FFF786FF00214FF48010FFF781FF11
:100DF00010BD2DE9F04786B005460E460024A246F8
:100E000000BFA1460027B08900B100BF2F462C8A41
:100E10004CF6FF700440F08804432C82AC894EF6F7
:100E2000F3100440B08831890843718908430443B2
:100E3000AC81AC8A4FF6FF400440B0890443AC82D9
:100E400001A8FFF7C2FEC648874202D1DDF810A014
:100E500001E0DDF80CA0A88900F4004040B10AEBE5
:100E6000CA0000EB0A1031684900B0FBF1F807E056
:100E70000AEBCA0000EB0A1031688900B0FBF1F8F8
:100E80006420B8FBF0F004012009642101FB108903
:100E9000A88900F4004040B1322000EBC900B0FB4B
:100EA000F1F000F00700044308E0322000EB0910E5
:100EB0006421B0FBF1F000F00F0004432C8106B078
:100EC000BDE8F0874FF41651016000218180C18098
:100ED00001810C21418100218181704710B50246BA
:100EE0000020108A4FF2FF0318400B884C882343E0
:100EF0008C882343CC8823431843108210BD0021E3
:100F0000018041808180C180704721B1828942F493
:100F10000052828104E082894DF6FF731A4082817B
:100F20007047F0B50346002400260025002040F657
:100F30006A17B94200D100BF1846C1F3421401F04C
:100F40001F06012707FA06F5012C01D10C3004E039
:100F5000022C01D1103000E014301AB107682F4381
:100F6000076002E00768AF430760F0BD1AB1838AEB
:100F70000B43838202E0838A8B4383827047028A19
:100F80004FF6F0731A400282028A0A4302827047C7
:100F900082894FF2FF731A40828182890A438281DB
:100FA000704721B1828942F00202828104E0828985
:100FB0004FF6FD731A4082817047028A4FF6DF7345
:100FC0001A400282028A0A430282704721B1028AD1
:100FD00042F48042028204E0028A4BF6FF731A4018
:100FE00002827047C1F308028280704701468888F8
:100FF000C0F308007047818941F001018181704789
:10100000028BD2B20283028B42EA01220283704732
:10101000028B02F47F420283028B0A4302837047F1
:1010200021B1828A42F02002828204E0828A4FF655
:10103000DF731A408282704721B1828A42F0100227
:10104000828204E0828A4FF6EF731A4082827047F0
:1010500021B1828A42F00802828204E0828A4FF63D
:10106000F7731A408282704721B1828942F40042AC
:10107000828103E08289C2F30E028281704721B12E
:10108000828A42F40062828204E0828A4FF2FF7315
:101090001A4082827047828A4FF6FB731A4082821E
:1010A000828A0A438282704721B1828A42F0020218
:1010B000828204E0828A4FF6FD731A408282704772
:1010C00002460020B1F5007F00D100BF13880B401D
:1010D0000BB1012000E00020704701F40072B2F56E
:1010E000007F00D100BFCA430280704770B502463E
:1010F000002400230025002040F66A16B14200D1EA
:1011000000BFC1F3421501F01F03012606FA03F3E5
:10111000012D02D19689334006E0022D02D1168AB4
:10112000334001E0968A33400C12012606FA04F49B
:101130001688344013B10CB1012000E0002070BDCE
:1011400010B50022002340F66A14A14200D100BF6E
:101150000A1201249440A3B2DC43048010BD0000B5
:10116000003801400044004000480040004C00406E
:1011700000500040002044490860091D0860091D16
:101180000860091D086041483F49143108607047F4
:1011900000213D498279002A3AD00A461268036844
:1011A0009A430B461A600A1D126803689A430B1D86
:1011B0001A60027911440A6803681A430A60324AC5
:1011C0000832126803689A432F4B08331A601A1DBD
:1011D000126803689A432C4B0C331A604279102A28
:1011E0000ED11A1F126803681A43274B08331A607E
:1011F0001A1D126803681A43234B0C331A600DE062
:101200002149427911440A6803681A430A6005E0DB
:10121000027911440A6803689A430A607047002102
:10122000016001710C2141710021817170471649E3
:10123000103109680143144A1032116070470146A9
:101240000020114A143212680A400AB1012000E05D
:10125000002070470C491431086070470146002097
:101260000022094B1B6803EA0102074B14331B6879
:101270000B4013B10AB1012000E000207047024981
:10128000143108607047000000040140FFFF0F00A8
:101290004FF0E020006920F004004FF0E0210861E9
:1012A0000920364908700846007800EB4001C1EB80
:1012B000C0104FF6FF7101EAC00031490880704745
:1012C000002120F07F402D4A127842434FF0E02366
:1012D0005A6100229A6101221A6100BF4FF0E02298
:1012E000116901F001021AB101F48032002AF5D02F
:1012F00000224FF0E0231A619A617047002100B983
:10130000704720F07F401E4A128842434FF0E0238E
:101310005A6100229A6101221A6100BF4FF0E02257
:10132000116901F001021AB101F48032002AF5D0EE
:1013300000224FF0E0231A619A6100BFE0E770B528
:101340000446002600254FF4FA7094FBF0F0C6B274
:101350004FF4FA7094FBF0F100FB114085B205E008
:101360004FF4FA70FFF7CAFF701EC6B2002EF7D115
:1013700015B12846FFF7C2FF70BD0000280000200D
:101380002A00002010B586B0044601210420FFF792
:1013900089FC01218803FFF785FC18208DF81700D0
:1013A0004FF40070ADF8140003208DF8160005A965
:1013B0006B48FFF7BBF904208DF817000002ADF869
:1013C000140003208DF8160005A96548FFF7AEF953
:1013D00001940020ADF810000C20ADF80E000020A4
:1013E000ADF80C00ADF80A00ADF8080001A95D48A1
:1013F000FFF7FFFC01215B48FFF787FD012240F268
:1014000025515848FFF78DFD25208DF8000001205B
:101410008DF8030000208DF8010002208DF80200F5
:101420006846FFF7BAF806B010BD10B586B004469E
:1014300001210420FFF736FC01214804FFF73FFC9F
:1014400018208DF817000420ADF8140003208DF843
:10145000160005A94248FFF769F904208DF8170026
:101460000820ADF8140003208DF8160005A93C48AB
:10147000FFF75CF901940020ADF810000C20ADF8E6
:101480000E000020ADF80C00ADF80A00ADF8080021
:1014900001A93548FFF7ADFC01213348FFF735FDC1
:1014A000012240F225513048FFF73BFD26208DF800
:1014B000000001208DF8030000208DF801008DF858
:1014C00002006846FFF769F806B010BD2DE9F0414B
:1014D00007460C46154600260DE014F8011B384659
:1014E000FFF780FD00BF40213846FFF7E9FD0028E7
:1014F000F9D0701C86B2AE42EFDBBDE8F0810FB4CC
:1015000030B5CBB0054601AC50A800904FF49471B3
:1015100001A8009B4F9A02F09BFC002000900BE07A
:1015200014F8011B2846FFF75DFD00BF4021284647
:10153000FFF7C6FD0028F9D020780028F0D14BB085
:1015400030BC5DF814FB10B540F225510548FFF79B
:10155000CDFD18B120210348FFF7BFFD10BD0000ED
:1015600000080140003801400044004010B5044626
:1015700084F001024FF400510D48FFF788F90D483F
:10158000047010BD08B501211020FFF78BFB10205F
:101590008DF803004002ADF8000003208DF8020032
:1015A00069460348FFF7C2F80020FFF7DFFF08BDD8
:1015B000001001402C0000201FB501210420FFF77E
:1015C00071FB01210846FFF76DFB48208DF80F00E5
:1015D0000220ADF80C0003208DF80E0003A91E4870
:1015E000FFF7A4F801210020FFF7B6F902200190CF
:1015F00001208DF80A0000208DF808000C208DF8DD
:10160000090001A8FFF7C4FD07208DF800000220A3
:101610008DF801008DF8020001208DF80300684666
:10162000FEF7BBFF1FBD10B50A20FFF767FE0221C2
:101630000948FFF70EF950B908480078012803D18E
:101640000020FFF793FF02E00120FFF78FFF022049
:10165000FFF715FE10BD0000000801402C0000201F
:1016600010B56648006820F00F006449086008461D
:10167000006840F003000860002201215F48FFF786
:1016800006F91420FFF73AFE012211465B48FFF7E6
:10169000FEF81E20FFF714FE10BD10B500245748B9
:1016A000006820F00F00554908600846006840F0C7
:1016B0000800086004E0601CC4B20120FFF700FECF
:1016C00001214E48FFF7C5F808B1642CF3DB642C08
:1016D00001DB012010BD002404E0601CC4B2012025
:1016E000FFF7EEFD01214548FFF7B3F808B9642C78
:1016F000F3DB642C01DB0120ECE70020EAE710B506
:10170000002404E0601CC4B20120FFF7D9FD0121D0
:101710003A48FFF79EF808B1642CF3DB002404E09C
:10172000601CC4B20120FFF7CBFD01213348FFF755
:1017300090F808B9642CF3DB2820FFF7C1FD0121E4
:101740002E48FFF786F808B1012010BD0020FCE705
:1017500070B50024002506E06006040EFFF7CFFFF9
:101760000443681CC5B2082DF6DB204670BD7CB56D
:1017700005460E46FFF774FFFFF78FFFF8B9002408
:1017800005E0FFF7E5FF0DF80400601CC4B2052C6E
:10179000F7DB9DF800009DF8011008449DF8021049
:1017A00008449DF8031008449DF80410884208D1AD
:1017B0009DF8000030709DF80200287001E00120C3
:1017C0007CBD0020FCE708B501210420FFF76AFA80
:1017D0000120ADF8000010208DF8030003208DF8E3
:1017E000020069460548FEF7A1FF01210348FFF703
:1017F0004AF8FFF735FFFFF750FF08BD000801402A
:1018000010B54FF4A060FEF7C3FEFFF741FD4FF4A3
:10181000E130FFF7B7FD4FF4E130FFF706FEFFF7C9
:10182000CBFEFFF7AFFE07E030A13448FFF767FEBD
:101830004FF47A70FFF783FDFFF7C5FF0028F3D15F
:101840002FA12E48FFF75BFE10BD002400BFFFF75D
:10185000D7FF02F0DDF92FA12848FFF750FE03E083
:101860004FF4FA70FFF74AFD31A133A002F071F98D
:101870000028F5D13CA12148FFF741FE03E04FF4D9
:10188000FA70FFF73BFD00F02BFA0028F7D101209A
:10189000FFF76CFE41F28830FFF751FD0020FFF7A3
:1018A00065FE21E038493948FFF761FF3648037883
:1018B0003648027836A11148FFF721FE601C80B23D
:1018C0000446B0F5FA7F0CDB2F493048FFF74FFF95
:1018D00036A10A48FFF713FE00F063FC002402F073
:1018E00019F90A20FFF72BFDDCE7000044485431CA
:1018F00031204572726F72200D0A000000380140DD
:1019000020486172647761726520696E6974204F46
:101910004B0D0A00436F6E6E656374204D51545435
:1019200073205365727665722E2E2E0D0A0000000C
:10193000434F4E4E4543540041542B43495053545A
:101940004152543D22544350222C226D71747473C1
:101950002E6865636C6F7564732E636F6D222C3116
:101960003838330D0A000000436F6E6E65637420D3
:101970004D515454732053657276657220737563AC
:10198000636573730D0A00002E0000202D000020F7
:1019900050342A2A2A2A2A74656D70202564202C46
:1019A00068756D692025640D0A0000004F6E654E54
:1019B00065745F53656E64446174610D0A000000D4
:1019C000F0B58BB0054600260024284602F049FDFC
:1019D000C7B20DB11C2F02DA01200BB0F0BD06E03A
:1019E000A85D01A988550020A855701CC6B2BE424A
:1019F000F6DB002001A988550026002455E001A847
:101A0000805D2B2810D008DC202814D023282ED06D
:101A1000252825D026283FD130E02F2812D03D2878
:101A200033D03F2838D114E02819FAA102F038FD4C
:101A3000E01CC4B236E02819F7A102F031FDE01C29
:101A4000C4B22FE02819F5A102F02AFDE01CC4B2AF
:101A500028E02819F2A102F023FDE01CC4B221E025
:101A60002819F0A102F01CFDE01CC4B21AE02819EC
:101A7000EDA102F015FDE01CC4B213E02819EBA1A2
:101A800002F00EFDE01CC4B20CE02819E8A102F03F
:101A900007FDE01CC4B205E001A8805D2855601C6C
:101AA000C4B200BF00BF701CC6B2BE42A7DB00209C
:101AB000285500BF91E72DE9F04FC9B005460C4607
:101AC00016461F460DF5A67898E8000DDDF84891FA
:101AD0000020489055B14CB1D648864206D32FB16C
:101AE000B8F1000F02D0BAF1780F03DA012049B043
:101AF000BDE8F08F402118A802F045FD384602F0FD
:101B0000B0FC05903B4648AA4021009018A801F07F
:101B100045F818AAC8A1CE48FFF7F1FC482106A84D
:101B200002F031FDBBF1000F09D0CAA03346CBA2B1
:101B300048218DE8310006A802F0BAF909E0C5A0F5
:101B40003346CCA248218DE81102039506A802F085
:101B5000AFF906AACFA1BE48FFF7D1FC402128A8C3
:101B600002F011FD06A802F07CFC059018A802F016
:101B700078FC049028A8009006AA18A8DDE90413B0
:101B800000F0C6FE28AACAA1B148FFF7B8FC0020A1
:101B90004890402138A802F0F6FC28A802F061FC29
:101BA000059028AB48AA4021009038A800F056FFC5
:101BB00038A8FFF705FF38AAC2A1A548FFF79FFC88
:101BC000BBF1000F0CD038A8A2A12B46C1A2CDE9D1
:101BD0000046CDE902105146404602F069F90CE09A
:101BE00038A89CA12B46C94ACDE901960094CDE9BD
:101BF00003105146404602F05BF94246C4A19448A6
:101C0000FFF77DFC002072E72DE9F041ACB0012721
:101C10000D250026002405F1F00002F0C3F8064669
:101C20001EB938462CB0BDE8F08103E04FF4FA70DD
:101C3000FFF764FBB9A1BBA001F08BFF0028F5D131
:101C40000120902108AA0023CDE90032CDE902103D
:101C5000BEA3CA4ACAA1CDA0FFF72DFFCEA10D2079
:101C6000CDE9000105F1F00108ABCC4A304602F0A5
:101C70001FF9304602F0F5FB1FFA80F84146304666
:101C800001F08DFFFA2001F0A1FF044624B1C4A1A8
:101C9000204602F0B0FB0446CCB100200390C348BC
:101CA00003A904ABC24ACDE90010C249204602F0A4
:101CB00045FA04280AD1BD48039904ABBC4ACDE9D2
:101CC0000010BDA16248FFF71AFC002700BF304694
:101CD00002F097F8C0A1C1A001F03BFF3846A1E790
:101CE00030B5B3B000202F90309031903290012564
:101CF000A02107AAA8A3CDE90032CDE9021093A341
:101D00009E4A9FA1A1A0FFF7D6FE07A89CA3A2A26E
:101D1000B6A100904E48FFF7F2FB2FA800210291D8
:101D20000391CDE90410084601210B029AA2CDE9E6
:101D3000001007A992A001F092F8002842D1309A31
:101D400091B22F9801F02BFFFA2001F03FFF0446DB
:101D5000002C33D0204601F04DF802282ED1204629
:101D600001F0E2F9062823D2DFE800F003090E13A0
:101D7000181DAAA13648FFF7C2FB00251DE0ACA143
:101D80003348FFF7BCFB18E0B0A13148FFF7B7FBC1
:101D900013E0B7A12E48FFF7B2FB0EE0BCA12C4820
:101DA000FFF7ADFB09E0C3A12948FFF7A8FB04E05A
:101DB000CBA12748FFF7A3FB00BF00BF2FA800F06F
:101DC000D1FF03E0CDA12248FFF799FB284633B0AD
:101DD00030BD10B58CB004463021684602F0D3FB0C
:101DE000CFA1204602F019FB3021684602F0CBFB60
:101DF000D1480278D1A1684602F044F869462046ED
:101E000002F04EFB3021684602F0BDFBD14802785B
:101E1000A2E1000025324200253230002532460082
:101E20002533460025323500253233002532360071
:101E3000253344009554415D6163636573735F6B43
:101E400065795F6261736536343A2025730D0A0047
:101E500000380140736861310000000025640A25E4
:101E6000730A70726F64756374732F25730A257318
:101E70000000000025640A25730A70726F647563A0
:101E800074732F25732F646576696365732F2573CB
:101E90000A257300737472696E675F666F725F7391
:101EA00069676E61747572653A2025730D0A0000CA
:101EB000686D61635F736861315F6275663A2025A2
:101EC000730D0A007369676E5F6275663A20257349
:101ED0000D0A000076657273696F6E3D2573267278
:101EE00065733D70726F6475637473252532462582
:101EF000732665743D2564266D6574686F643D25A1
:101F000073267369676E3D257300000070620008D8
:101F1000546F6B656E3A2025730D0A00434F4E4E89
:101F20004543540041542B43495053544152543D6E
:101F300022544350222C223138332E3233302E3467
:101F4000302E3333222C38300D0A000064314D7AA4
:101F50005132787553446C7952317051566D4E6FD1
:101F6000526A425A5A45316D526E6C6B5345646BDE
:101F70004E4778786345733D0000000000CF9D74A4
:101F8000796E6C573370314831440000323031384B
:101F90002D31302D3331000064310000B86200086B
:101FA0006465766963655F6964000000480000202D
:101FB0003800002024620008637265617465206443
:101FC00065766963653A2025732C2025732C2025BE
:101FD000642C2025730D0A004F4B000041542B4305
:101FE0004950434C4F53450D0A0000004F6E654E5B
:101FF00045545F4465764C696E6B0D0A4E414D4504
:102000003A2025732C0950524F49443A2025732C0D
:10201000094B45593A25730D0A0000005469707345
:102020003A09C1ACBDD3B3C9B9A60D0A000000007E
:102030005741524E3A09C1ACBDD3CAA7B0DCA3BACE
:10204000D0ADD2E9B4EDCEF30D0A00005741524EA7
:102050003A09C1ACBDD3CAA7B0DCA3BAB7C7B7A809
:10206000B5C4636C69656E7469640D0A0000000094
:102070005741524E3A09C1ACBDD3CAA7B0DCA3BA8E
:10208000B7FECEF1C6F7CAA7B0DC0D0A000000000B
:102090005741524E3A09C1ACBDD3CAA7B0DCA3BA6E
:1020A000D3C3BBA7C3FBBBF2C3DCC2EBB4EDCEF31F
:1020B0000D0A00005741524E3A09C1ACBDD3CAA720
:1020C000B0DCA3BAB7C7B7A8C1B4BDD328B1C8C8DC
:1020D000E7746F6B656EB7C7B7A8290D0A000000DB
:1020E0004552523A09C1ACBDD3CAA7B0DCA3BACE9F
:1020F000B4D6AAB4EDCEF30D0A0000005741524EFB
:102100003A094D5154545F5061636B6574436F6E6F
:102110006E656374204661696C65640D0A00000099
:102120007B226964223A22313233222C227061727E
:10213000616D73223A7B00002D0000202274656DD2
:1021400070223A7B2276616C7565223A25647D2C7B
:10215000000000002E000020B3A1684601F092FEAE
:102160006946204602F09CF93021684602F00BFADD
:10217000B348007808B1B3A000E0B4A00246B5A10E
:10218000684601F07FFE6946204602F089F9B6A153
:10219000204602F085F9204602F063F9C0B20CB087
:1021A00010BD30B5C5B0002041904290439044909E
:1021B00000240025ADA1B548FFF7A1F94FF48071C7
:1021C00001A802F0E0F901A8FFF703FE0446002C85
:1021D00028D041A800232246AFF244210090AFF25C
:1021E000602001F092F8C8B908E001A8415D429A68
:1021F000501C429041988154681C05B2A542F4DB02
:10220000429A91B2419801F0CAFCA1A19F48429A1A
:10221000FFF775F941A800F0A5FD03E0A0A19B48D8
:10222000FFF76DF945B030BD70B588B005460C4676
:102230000020049005900690079023462A46A0A10E
:102240009248FFF75CF9204602F00BF9064604A815
:102250000121002200923346CDE90121039022465C
:1022600029460A2000F06FFF38B9059A91B2049808
:1022700001F095FC04A800F075FD08B070BD00B534
:1022800095B00020119012901390149003A8029022
:10229000AFF2FC20AFF2183391A23821009003A8CE
:1022A00001F006FE03AA93A17848FFF728F911A8C8
:1022B000012302AA00210090142001F030F938B95E
:1022C000129A91B2119801F06AFC11A800F04AFD2F
:1022D00015B000BD2DE9F043A9B08146002028903B
:1022E00027902690259024900026002700248046E1
:1022F000484600F07FFD0646032E04D0042E45D04C
:10230000092E5AD14BE0814824A925AA28ABCDE952
:102310000021029026AA27A9484601F038FA07466C
:10232000002F32D10025BDF894002899CDE9001086
:10233000BDF8983076A15548279AFFF7E0F883A1B9
:10234000279802F058F80546F5B12F21284602F0EB
:1023500036F805466D1C2422294603A802F0ACF885
:1023600000208DF8300003A8AFF2D431AFF2F03383
:1023700079A2CDE9001050210DA801F099FD7DA1B1
:102380000DA8FFF751FF00BF00BF00BF484601F096
:10239000FEFA18B979A13D48FFF7B1F810E04846B8
:1023A00001F03CF920B97DA13848FFF7A8F803E017
:1023B00081A13648FFF7A3F802E04FF0FF3700BFD6
:1023C00000BF01F0A7FB781C10B929B0BDE8F0836D
:1023D0003A21289801F0F3FF0446C4B1781CB0B14B
:1023E000641C06E014F8012B404608F1010821A9FD
:1023F0000A542078302802DB20783928F2DD0020CA
:1024000021A901F8080021A801F0CCFF80460F2E79
:1024100001D0032E05D1279801F0F3FC289801F094
:10242000F0FC00BFD1E700002268756D69223A7B9D
:102430002276616C7565223A25647D2C00000000CF
:102440002C000020747275650000000066616C73DA
:1024500065000000226C6564223A7B2276616C750F
:1024600065223A25737D00007D7D000054697073FC
:102470003A094F6E654E65745F53656E64446174CE
:10248000612D4D5154540D0A0000000000380140E8
:1024900053656E642025642042797465730D0A00CB
:1024A0005741524E3A094544505F4E657742756632
:1024B000666572204661696C65640D0A0000000063
:1024C0005075626C69736820546F7069633A202597
:1024D000732C204D73673A2025730D0A000000000D
:1024E000247379732F25732F25732F636D642F2326
:1024F0000000000053756273637269626520546F57
:102500007069633A2025730D0A0000003000002036
:10251000746F7069633A2025732C20746F7069633F
:102520005F6C656E3A2025642C207061796C6F6158
:10253000643A2025732C207061796C6F61645F6C44
:10254000656E3A2025640D0A000000007265717501
:102550006573742F00000000247379732F25732F87
:1025600025732F636D642F726573706F6E73652FA3
:10257000257300006F6A626B00000000546970737D
:102580003A094D515454205075626C697368205358
:10259000656E64204F4B0D0A000000005469707393
:1025A0003A094D51545420537562736372696265E0
:1025B000204F4B0D0A000000546970733A094D51C9
:1025C0005454205375627363726962652045727258
:1025D0000D0A0000F0B50446142C06DA01EA0205E3
:1025E00023EA010685EA060019E0282C04DA81EACC
:1025F000020787EA030012E03C2C0ADA01EA02052E
:1026000001EA030787EA050602EA030787EA0600EC
:1026100005E0502C03DA81EA020787EA0300F0BDE7
:102620000146142901DAF7480AE0282901DAF648B8
:1026300006E03C2901DAF54802E0502900DAF448C6
:102640007047F0B5024601209040441EE54301EA80
:10265000050020FA02F601EA0400C2F1200C00FA9B
:102660000CF746EA07031846F0BDF0B50246C2F182
:10267000200C012000FA0CF0441EE54301EA04009E
:1026800000FA02F601EA0500C2F1200C20FA0CF76C
:1026900046EA07031846F0BD2DE9F04FDDB00746C6
:1026A0008A4615460AF1080909F101094FEACA00EC
:1026B0005B9048464FEAE97109EB91618E114846FB
:1026C0004FEAE97109EB91618911A9EB81115C91E4
:1026D0005C98002800DD761C5C98C0F140008144C5
:1026E000D04604E0002007F8080008F10108B8EB24
:1026F000861FF7DB802007F80A000121C1EB861155
:102700005B9878545B98C0F307200221C1EB8611D7
:1027100078545B98C0F307400321C1EB86117854CD
:102720005B98000E0421C1EB86117854B94856908D
:10273000B9485790B748C0435890B748C0435990DC
:10274000B6485A904FF00008A5E0002452E0102C43
:1027500032D24FEA881000EB8400385C000601A9F1
:1027600041F824004FEA881000EB8400401C385CDC
:1027700051F824104FF4803202FB001001A941F8F7
:1027800024004FEA881000EB8400801C385C51F86C
:102790002410121202FB001001A941F824004FEA94
:1027A000881000EB8400C01C385C51F824100844E9
:1027B00001A941F824001CE0502C1AD2E01E01AA05
:1027C00052F82000A4F1080201AB53F82220504037
:1027D000A4F10E0253F822205040A4F1100253F845
:1027E000222080EA02010120FFF73FFF01A941F802
:1027F0002400641C502CAAD3569855905798549096
:1028000058985390599852905A98519000242AE021
:1028100005205599FFF729FF83462046529B539A7E
:102820005499FFF7D7FE58440090519900980844F6
:1028300000902046FFF7F4FE00990844009001A89C
:1028400050F82410009808440090529851905398E2
:1028500052901E205499FFF708FF539055985490BA
:1028600000985590641C502CD2D356995598084422
:10287000569057995498084457905899539808443B
:10288000589059995298084459905A995198084427
:102890005A9008F10108B045FFF657AF5698E87016
:1028A0005698000AA8705698000C68705698000E4A
:1028B00028705798E8715798000AA8715798000C2B
:1028C00068715798000E28715898E8725898000A55
:1028D000A8725898000C68725898000E287259987F
:1028E000E8735998000AA8735998000C68735998AE
:1028F000000E28735A98E8745A98000AA8745A98D7
:10290000000C68745A98000E28745DB0BDE8F08F12
:102910002DE9F04FADF5B36D07460E469246984649
:10292000DDF8BC9540254FF0360B5C20CDF89405C2
:10293000002404E000200DF254510855641C402C82
:10294000F8DBAE421DD0AE420FDD4A463146384676
:10295000FFF7A2FE002405E019F804000DF254511F
:102960000855641C142CF7DB14E0AE4212DA002484
:1029700004E0385D0DF254510855641CB442F8DB94
:1029800008E0002404E0385D0DF254510855641C41
:10299000AC42F8DB002408E00DF25450005D80EA00
:1029A0000B000DF214510855641C402CF4DB00247C
:1029B00005E00DF21450005D15A90855641C402C6B
:1029C000F7DB002406E01AF8041015AA04F1400011
:1029D0001154641C4445F6DB08EB05014A4615A872
:1029E000FFF75AFE002409E00DF25450005DDDF8B7
:1029F000941548400DF2D4410855641C402CF3DB7B
:102A0000002413E09979825AA1EBD96EDCBC1B8FAC
:102A1000D6C162CA0123456789ABCDEFF0E1D2C3CD
:102A20000DF2D440005D0DF80400641C402CF7DB6F
:102A3000002406E019F8041004F140000DF800101D
:102A4000641C142CF6DB4A4605F114016846FFF7B6
:102A500023FE0DF5B36DBDE8F08F00002DE9F04FBA
:102A600007468946099C00250026AC46A846AA468A
:102A700000211CB900201060BDE8F08F0320B4FBDA
:102A8000F0F04FF0030BB4FBFBFE0BFB1E4BBBF156
:102A9000000F02D04FF0010B01E04FF0000B00EBF4
:102AA0000B06B6F1804F05D34FF0FF3010606FF08A
:102AB0002900E1E7B600701C814500D327B9701CDE
:102AC00010606FF02900D7E70320B4FBF0F000EBB3
:102AD00040060025394629E013F801CB13F8018B95
:102AE00013F801AB87484FEA9C0B10F80B0001F874
:102AF000010B4FEA0C1000EB281000F03F00DFF84C
:102B000004B21BF8000001F8010B4FEA880000EB4B
:102B1000AA1000F03F001BF8000001F8010B0AF0BA
:102B20003F001BF8000001F8010BED1CB542D3D3A8
:102B3000A5422DD213F801CB681CA04202D213F893
:102B4000010B00E0002080466E48CCF3850B10F8A6
:102B50000B0001F8010B4FEA0C1000EB281000F0FD
:102B60003F00DFF8A0B11BF8000001F8010B681C62
:102B7000A04207D23F2000EA88001BF8000001F8BD
:102B8000010B02E03D2001F8010B3D2001F8010B93
:102B9000C81B10600020087000BF6DE72DE9F047EA
:102BA000074689469046DDF820C000210022002417
:102BB00000260025002004460246014645E0002686
:102BC00001E0491C761C614502D2585C2028F8D0EF
:102BD000614500D13BE0ACEB0100022807D3585C13
:102BE0000D2804D1481C185C0A2800D12CE0585C40
:102BF0000A2800D128E01EB16FF02B00BDE8F08755
:102C0000585C3D2806D1601C0446022802D96FF0AA
:102C10002B00F3E7585C7F2806DC585CDFF8E8A05F
:102C20001AF800007F2802D16FF02B00E6E7585C0D
:102C3000DFF8D4A01AF80000402803DA14B16FF0CE
:102C40002B00DBE7521C00BF491C6145B7D300BF16
:102C50001AB90020C8F80000D0E7D00800EB400007
:102C60004FEA400A02F0070000EB40004000C01DA0
:102C70000AEBD002121B0FB1914504D2C8F8002014
:102C80006FF02900BAE703240020064602463D46BD
:102C900031E018780D2805D018780A2802D0187865
:102CA000202800D125E01878DFF85CA01AF8000091
:102CB000402801D1012000E00020241A1878DFF814
:102CC00048A01AF8000066F39F100646501C024602
:102CD00004280DD1002214B1300C05F8010B012C91
:102CE00002D9300A05F8010B022C01D905F8016B55
:102CF00000BF491E5B1C0029CBD1E81BC8F80000AF
:102D000000207BE78C600008CC60000870B50446AA
:102D10000E460025206898B901202073304601F046
:102D200041F820602068E0B100206060A66003E008
:102D30000020216848556D1CA068A842F8D810E012
:102D40000220207303E00020216848556D1CA06814
:102D5000A842F8D800206060A068B04201D20020EC
:102D6000206070BD10B50446207B012802D1206888
:102D700001F047F8002020606060A060207310BD63
:102D80000246002301230DE002F07F000870D20903
:102D90002AB1087840F080000870491C01E018460C
:102DA00070475B1C042BEFDD4FF0FF30F8E7F0B508
:102DB00004460D462646012300201060002114E041
:102DC000775C07F07F07106807FB03001060705CFA
:102DD00000F0800008B9481CF0BDDB01B3F5001F0E
:102DE00002D36FF00100F7E7491CA942E8DB4FF07E
:102DF000FF30F1E7F8B50446FF2720780511012DD3
:102E000001DB0E2D01DD3846F8BD032D24D1002055
:102E100000906A460421601CFFF7C9FF2044461C4D
:102E20000098022803D3207800F0010008B1FF20A9
:102E3000EAE77078317840EA0120801C00998842E6
:102E400001D9FF20E0E7F8A1B01C01F0D4FA08B1E5
:102E50000F2700E0032700E02F463846D4E72DE98E
:102E6000FF4F83B082468B469146159C002500207B
:102E700002900F270190484601F0F3FA0FFA80F80C
:102E8000B9F1000F03D1012007B0BDE8F08F08F1C0
:102E90000200384487B2109808B145F00205129834
:102EA00078B145F00405129801F0DBFAC0B2029047
:102EB000139801F0D6FA01460298001D08443844E0
:102EC00087B2119820B1012804D0022808D104E06B
:102ED00000BF07E045F00C0504E045F0140501E0F3
:102EE0000220D1E700BF149808B145F02405BAF1DB
:102EF000000F02D0BBF1000F01D10320C4E745F061
:102F0000C005504601F0ADFA0646584601F0A9FA50
:102F10003044001D384487B239462046FFF7F6FE9C
:102F2000206808B90420AFE73946206801F009FBA2
:102F300010216268501C606020688154D4E900232D
:102F4000D118781FFFF71CFF00B2019001980028EC
:102F500004DA2046FFF706FF052095E7616801982F
:102F60000844606000216268501C606020688154E1
:102F700004216268501C6060206881544D216268A1
:102F8000501C60602068815451216268501C606050
:102F90002068815454216268501C6060206881540C
:102FA0006268501C60602068815404216268501C73
:102FB0006060206881546168481C606020684554E6
:102FC0000698010A6268501C606020688154069867
:102FD000C1B26268501C606020688154C8F3072148
:102FE0006268501C6060206881546268501C606098
:102FF000206800F80280D4E9001288184246494649
:1030000001F0E7F960684044606005F00400B8B37F
:103010000026139808B986A01390129801F021FA9F
:1030200086B2310A6268501C606020688154626810
:10303000501C606020688654D4E90012881832461B
:10304000129901F0C6F9606830446060139801F08D
:1030500008FA86B2310A6268501C606020688154A8
:103060006268501C606020688654D4E90012881899
:103070003246139901F0ADF960683044606000BFDA
:1030800005F08000C8B1504601F0EBF986B2310A74
:103090006268501C6060206881546268501C6060E7
:1030A00020688654D4E9001288183246514601F04F
:1030B00090F960683044606000BF05F04000C8B11E
:1030C000584601F0CEF986B2310A6268501C606041
:1030D000206881546268501C606020688654D4E97E
:1030E000001288183246594601F073F9606830447E
:1030F000606000BF0020C7E610B5044602212046EC
:10310000FFF704FE206808B9012010BDE0216268C5
:10311000501C60602068815400216268501C60600F
:10312000206881540020F0E701464878022801D049
:1031300001207047887810B18878012801D1C878BB
:10314000F7E7FF20F5E72DE9FF4F83B083461746E9
:103150009946139C0025002600200290019080468D
:10316000BBF1000F03D1012007B0BDE8F08F0026AE
:103170000AE00498805D232803D00498805D2B2802
:1031800001D10220F0E7761C0498805D0028F0D180
:1031900048F03008119808B148F0010806EB090022
:1031A000851C109820B1012804D002280AD105E01E
:1031B00000BF09E048F00208AD1C05E048F0040833
:1031C000AD1C01E00320CFE700BF67B338780228C9
:1031D00021D14FF0000A00BF50460AF1010A385CC5
:1031E0007D28F9D1AAF1030A0AF10700029002989A
:1031F000A9EB000AE81CA0EB0A012046FFF786FDB8
:10320000206808B90420AFE7EA1CA2EB0A01206895
:1032100001F097F91FE0691D2046FFF777FD206850
:1032200040B90420A0E70AE0246372657100000041
:1032300000000000691D206801F083F90BE0691DA2
:103240002046FFF763FD206808B904208CE7691D5C
:10325000206801F076F96168481C6060206800F819
:103260000180D4E9000281182846FFF789FD01900A
:103270000198002804DA2046FFF774FD052073E763
:103280006168019808446060C6F307216268501CB9
:103290006060206881546268501C606020688654B9
:1032A000D4E9001288183246049901F092F8606857
:1032B00030446060109860B14FEA1B216268501C76
:1032C0006060206881546268501C6060206800F86B
:1032D00002B0C7B1387802280BD1D4E9001288189F
:1032E0003946029A01F0E8F8616802980844606083
:1032F00009E0D4E9001288184A46394601F0DCF8A2
:1033000060684844606000202EE72DE9F04190B0ED
:1033100004460D4616469846169F2346F7A23021CE
:1033200004A8009500F0C4FD01200021CDE90001B2
:1033300033460A4604A9CDE902070A20FFF703FF36
:1033400018B1012010B0BDE8F0810020FAE72DE9A6
:10335000F04F85B080460D4691460120049000272D
:10336000002600244FF0000A404601F07AF800F1F0
:103370000D0B584600F016FD07461FB9049805B01E
:10338000BDE8F08F4246E5A1384600F07BFD3846A7
:1033900001F067F8C6B2F01D00EB050AAAEB0500C4
:1033A00000F000FD044624B9384600F02AFD0498D8
:1033B000E5E70220207000206070A6703246394692
:1033C000E01C01F079F8290EF01C2154C5F30741E7
:1033D000301D2154C5F30721701D2154B01D255403
:1033E00001200021CDE9000153462246CFA1CDE9BD
:1033F00002090A20FFF7A7FE08B90020049038460A
:1034000000F0FFFC204600F0FCFC0498B7E72DE933
:10341000F84380460C4615461E462F2108F106004B
:1034200000F0CDFF07460020009017B90120BDE84D
:10343000F8837F1C6A46042108F10100FFF7B7FCFE
:10344000252000F0AFFC2060206808B90220EEE7DC
:103450002521206801F075F824223946206801F002
:103460002BF8243700982C3830803188481C00F025
:1034700099FC2860286820B9206800F0C2FC03206D
:10348000D5E73288511C286801F05BF8328839464C
:10349000286801F011F80020C9E72DE9FF5F074611
:1034A0000D469046384600F0DCFF86B2284600F014
:1034B000D8FF1FFA80FA4FF00009F01D00F072FCEF
:1034C00004461CB9012004B0BDE8F09FF11D204660
:1034D00001F037F896A0016821608088A08032460C
:1034E0003946204600F075FF284600F0BAFF8346B3
:1034F0000120002100915B462A46CDE90208019196
:1035000021460A20FFF71FFE10B94FF0000901E025
:103510004FF00109204600F074FC4846D3E72DE93E
:10352000FF5F8046174699460E9C0026B246B3467A
:103530000025B8F1000F03D1012004B0BDE8F09FD1
:103540000BE057F8250008B90220F6E757F82500E8
:1035500000F087FF0644681CC5B24D45F1DB09EB5E
:103560004900801C00EB060A0AF105012046FFF71E
:10357000CDFB206808B90320DFE782216268501C78
:10358000606020688154D4E9000281185046FFF73A
:10359000F7FB0FFA80FBBBF1000F04DA2046FFF7C0
:1035A000E1FB0420C9E76068584460604FEA1821D5
:1035B0006268501C6060206881546268501C6060C2
:1035C000206800F80280002524E057F8250000F06C
:1035D00048FF0646C6F307216268501C60602068F9
:1035E00081546268501C606020688654D4E90023CE
:1035F000D01857F82510324600F0EBFE60683044D2
:1036000060600198C1B26268501C6060206881549B
:10361000681CC5B24D45D8DB00208EE70146FF206F
:103620008A78A2B9CA78142A11D10A7932B1012A4A
:1036300005D0022A04D0802A06D103E000BF00BFD3
:10364000002003E0012001E0022000BF00BF70471E
:103650002DE9F05F80460F4691461C460026B24693
:10366000B3460025B8F1000F02D10120BDE8F09F5C
:103670000BE057F8250008B90220F7E757F82500B6
:1036800000F0EFFE0644681CC5B24D45F1DB022098
:1036900000EB490000EB060A0AF105012046FFF79E
:1036A00035FB206808B90320E0E7A2216268501CBE
:1036B000606020688154D4E9000281185046FFF709
:1036C0005FFB0FFA80FBBBF1000F04DA2046FFF727
:1036D00049FB0420CAE76068584460604FEA18213B
:1036E0006268501C6060206881546268501C606091
:1036F000206800F8028000253CE000002473797304
:103700002F25732F25732F7468696E672F70726F62
:1037100070657274792F706F737400007B2264730C
:103720005F6964223A222573227D000024647000C0
:1037300024637273702F000057F8250000F091FE8B
:103740000646C6F307216268501C606020688154F9
:103750006268501C606020688654D4E90023D01849
:1037600057F82510324600F034FE6068304460603F
:10377000681CC5B24D45DFDB002077E7014601201C
:103780008A781AB9CA781E2A00D1002070472DE91C
:10379000FC5F81460D4614461E46DDE90C8B99F808
:1037A000000000F00F0A002001900AF008000090CD
:1037B000CAF341008BF8000001AA042109F10100BD
:1037C000FFF7F5FA4844471C0198022802D30AF093
:1037D000010010B1FF20BDE8FC9F7878397840EAFD
:1037E000012020802088801C0199884201D9FF2077
:1037F000F1E7AFF2CC51B81C00F0FDFD08B10F208D
:10380000E9E79BF8000020B101283DD0022877D1DC
:103810003BE0009808B1FF20DDE72188481C00F05C
:10382000C1FA2860286808B9FF20D4E72288511C13
:10383000286800F086FE2288B91C286800F03CFE4B
:103840000198801E2188401AA8F80000B8F80010DE
:10385000481C00F0A7FA3060306820B9286800F0F2
:10386000D0FAFF20B7E7B8F80020511C306800F00C
:1038700068FEB8F80020B4F800C0BB1C0CEB0301D4
:10388000306800F019FE4FE000BF2088801C0199CD
:10389000884201D9FF209EE72088C01C395C20881F
:1038A000801C385C41EA00210E9801800E9808B90E
:1038B000FF2090E72188481C00F074FA28602868EF
:1038C00008B9FF2087E72288511C286800F039FEDC
:1038D0002288B91C286800F0EFFD0198001F21889C
:1038E000401AA8F80000B8F80010481C00F05AFA76
:1038F0003060306828B9286800F083FAFF206AE752
:1039000010E0B8F80020511C306800F01AFEB8F83A
:103910000020B4F800C03B1D0CEB0301306800F040
:10392000CBFD01E0FF2056E700BF2B21284600F029
:1039300046FD20B92321284600F041FD08B1FF20B3
:1039400049E7002047E770B505460C4604212046AC
:10395000FFF7DCF9206808B9012070BD40216268DA
:10396000501C60602068815402216268501C6060B5
:103970002068815429126268501C6060206881545C
:103980006268501C6060206885540020E5E70146AD
:103990004878022801D001207047887820B9C8787B
:1039A0000A2801D10020F7E70120F5E770B50546A8
:1039B0000C4604212046FFF7A9F9206808B9012028
:1039C00070BD50216268501C6060206881540221E3
:1039D0006268501C60602068815429126268501C23
:1039E0006060206881546268501C60602068855463
:1039F0000020E5E701464878022801D00120704701
:103A0000887820B9C8780A2801D10020F7E701207A
:103A1000F5E770B505460C4604212046FFF776F918
:103A2000206808B9012070BD62216268501C606086
:103A30002068815402216268501C606020688154B3
:103A400029126268501C6060206881546268501CB2
:103A50006060206885540020E5E70246507802281F
:103A600001D0012070479078B0EB112F05D1D078AC
:103A7000CBB2984201D10020F4E70120F2E770B503
:103A800005460C4604212046FFF740F9206808B996
:103A9000012070BD70216268501C606020688154F4
:103AA00002216268501C606020688154291262689B
:103AB000501C6060206881546268501C60602068FF
:103AC00085540020E5E701464878022801D001200E
:103AD0007047887820B9C8780A2801D10020F7E714
:103AE0000120F5E710B5044602212046FFF70EF944
:103AF000206808B9012010BDC0216268501C6060B8
:103B00002068815400216268501C606020688154E4
:103B10000020F0E710B54FF400716F4800F011FD80
:103B200000206E49088010BD6C48008808B901204B
:103B300070476A4800886A490988884203D1002092
:103B400066490880F4E765480088654908800120D7
:103B5000EEE72DE9F04104460D46C826204600F068
:103B600080FC87B23A4621465E48FDF7AFFC0FE085
:103B7000FFF7DAFF48B92946574800F03CFC20B16E
:103B8000FFF7C8FF0020BDE8F0810A20FDF7B6FB73
:103B9000301EA6F10101CEB2EAD10120F3E730B523
:103BA00089B004460D46FFF7B5FF2A464EA101A88D
:103BB00000F068F950A101A8FFF7CBFF20B92A4611
:103BC00021464848FDF782FC09B030BD70B5054676
:103BD000002400BFFFF7A8FF80B948A13E4800F0CD
:103BE0000AFC044654B13A21204600F0E8FB0446A2
:103BF00014B1641C204670BD0020FCE70520FDF7D1
:103C00007DFB281EA5F101018DB2E3D100BFF2E7D3
:103C100010B5FFF77FFF3BA13C48FDF770FC03E0C8
:103C20004FF4FA70FDF76AFB39A13AA0FFF791FF54
:103C30000028F5D139A13548FDF761FC03E04FF4C8
:103C4000FA70FDF75BFB32A137A0FFF782FF002877
:103C5000F5D139A12D48FDF752FC03E04FF4FA707D
:103C6000FDF74CFB2AA138A0FFF773FF0028F5D120
:103C700039A12648FDF743FC03E04FF4FA70FDF745
:103C80003DFB38A139A0FFF764FF0028F5D13FA123
:103C90001E48FDF734FC10BD10B540F22551114807
:103CA000FDF724FAB8B10D480088B0F5007F02D3C3
:103CB00000200A4908800B48001D0088C1B207484F
:103CC00002880088401C054B18800348815420213D
:103CD0000448FDF702FA10BD7800002032000020F1
:103CE000340000200044004041542B4349505345C8
:103CF0004E443D25640D0A003E0000004950442C0E
:103D000000000000312E2041540D0A00003801400F
:103D10004F4B000041540D0A00000000322E20439A
:103D2000574D4F44450D0A0041542B43574D4F44C6
:103D3000453D310D0A000000332E2041542B4357DE
:103D4000444843500D0A000041542B435744484314
:103D5000503D312C310D0A00342E2043574A41503A
:103D60000D0A0000474F54204950000041542B4396
:103D7000574A41503D224D7957696669222C2231BC
:103D800032333435363738220D0A0000352E2045BF
:103D900053503832363620496E6974204F4B0D0A25
:103DA0000000000070B5064600F018FC056806F13A
:103DB0000B0020F00704B4429CBF002070BD2B46CE
:103DC0006A68BAB11068A04210D304F108018842B1
:103DD0003CBF5068586007D35168101941601168A2
:103DE000091B016058601460101D70BD13465268B5
:103DF000002AE7D12146284600F0FCFB0028DED14E
:103E000070BD70B50446051F00F0E8FB0068002C8B
:103E100014BF446870BD002C18BFAC423CBF2046A4
:103E20006468F8D301680A18AA4218BF456003D134
:103E30002A6805461144016028684119A1421CBF47
:103E40006C6070BD6168696021680844286070BD5D
:103E50007CB51D4616460C00009001D02044401E43
:103E6000074B7B442A4669460190304600F0B7FC78
:103E700005461CB10020694600F0C4FC28467CBD04
:103E8000A90900000FB41CB5084B06AA7B4469467B
:103E90000090059800F0A3FC04460020694600F05D
:103EA000B1FC20461CBC5DF814FB00007509000045
:103EB0000FB47CB50C0009AA009001D02044401E2C
:103EC000084B7B4469460190089800F088FC054641
:103ED0001CB10020694600F095FC28467CBC5DF8CA
:103EE00014FB00004909000070B50C460546012A84
:103EF00005D02878800600D5EA69002302E0012376
:103F000005E05B1C934202D2E05C0028F9D1A8696D
:103F1000E618C01AA861286A18442862284600F0EA
:103F2000B3FB04E0D5E9012114F8010B9047B4423A
:103F3000F8D3284600F0BEFB70BD00002DE9F0412B
:103F40000646002410687529314616A510D000F0E9
:103F5000C2FB002802DA404213A507E031688A0755
:103F600001D512A502E0490704D511A5012401E0FD
:103F700000F0BAFB00210A2206F1240709E0B0FB99
:103F8000F2FCB0FBF2F302FB1C0030307854184610
:103F9000491C0028F3D123462A463046BDE8F041AB
:103FA00000F0ABBB000000002D0000002B00000063
:103FB000200000002DE9F05F894604464FF0000A1A
:103FC000DFF874B1FB44C0F820A02046E1688847C0
:103FD000002874D0252806D0D4E901219047206A12
:103FE000401C2062F1E700265F462046E1688847D2
:103FF0002028054607DB312D05D2781910F8200C52
:1040000008B10643F1E7B00701D526F00406C4F86D
:104010001CA00027C4F818A02A2D09D0284602F0B9
:1040200000F838B304EB8708303DC8F8185019E0A1
:1040300059F8041B204604EB87029161E168884728
:10404000012F054618D1E069002820DA26F0200665
:104050001DE0D8F8180000EB800005EB4000303878
:10406000C8F818002046E1688847054601F0D9FFE6
:104070000028EED1012F0AD02E2D08D12046E1686C
:1040800088477F1C0546022F46F02006C4DBA06946
:10409000002803DA404246F00106A061F00701D093
:1040A00026F010066C2D0BD0682D09D04C2D39D080
:1040B0006A2D35D0742D35D07A2D33D016E038E006
:1040C000E1682F4620468847B842054609D16C2F43
:1040D00026D04FF48060E1680643204688470546B5
:1040E00004E06C2F1AD04FF4807006430DB3A5F195
:1040F0004100192802D8203546F400664A46294670
:10410000204626604E46FCF72BF880B101280BD0E4
:10411000F61D26F0070000F1080956E74020E4E705
:104120008020D8E70020D6E706F104094DE72846AD
:1041300052E7206ABDE8F09F842100000FB400B56B
:104140008DB010A9099000910B904FF0FF300A90AC
:1041500000200C90064878440690064878446A4649
:1041600007900F9909A800F0A3FC0DB05DF814FBAF
:10417000770900008F0900002DE9FF5F1D464FF011
:10418000FF3B91464FF000085F46D5E90146A9691B
:1041900001987F1C8847296A824688470028F6D103
:1041A000BAF1FF3F0CD0002E24F4C06419DD600684
:1041B00014D5BAF12B0F09D0BAF12D0F0ED103E0AF
:1041C000584604B0BDE8F09F44F48064A9690198A2
:1041D0007F1C8847761E8246002E02DDBAF1300F22
:1041E00003D0B9F1000F26D032E0A969761E0198FC
:1041F0007F1C44F400748847002E824605DDBAF126
:10420000780F06D0BAF1580F03D0B9F1000F10D0D3
:104210001EE0B9F1000F02D0B9F1100F18D1A96951
:10422000761E01987F1C24F4007488478246102073
:1042300002E0082000E00A20814609E0A96908FBA5
:104240000908761E01987F1C44F400748847824652
:10425000002E05DD4946504600F016FC0028EDDA38
:10426000E96901988847A00502D46FF00100A8E72A
:10427000E00725D1600613D5600502D5C8F100001E
:1042800000E0404629680A1D2A600968220501D518
:10429000087015E0220701D5088011E008600FE0E2
:1042A0002868011D29600068210502D580F800807A
:1042B00006E0210702D5A0F8008001E0C0F80080E8
:1042C00038467EE72DE9FF5F4FF000089946144617
:1042D00046469169D2E901A7DDF838B001988847D0
:1042E000054659EA0B0005D009E0A1690198761C42
:1042F00088470546216A284688470028F5D1681C6A
:1043000003D05FEACA7005D015E04FF0FF3004B06B
:10431000BDE8F09F2068011D2160D0F800800AE010
:104320005FEACA7001D108F8015BA169761C0198A7
:104330007F1E88470546002F1ADD681C18D0B9F18A
:10434000000F0DD0E81705EBD060421120F01F00E0
:1043500059F822102A1A012090400142E0D107E0CA
:10436000BBF1000FDCD12846216A88470028D7D04E
:10437000E16901988847BBF1000F07D1002E05DDE8
:104380005FEACA7002D1002188F80010A068B84224
:1043900003DDBBF1000F03D017B16FF00100B6E7EA
:1043A0003046B4E770B5064600F01CF904680546CF
:1043B00030460A22002100F0ABFB2C6070BD401E8D
:1043C000CAB210F8011F8A4202D00029F9D1002098
:1043D000704710B5431E13F8014F002CFBD105E0C8
:1043E00011F8014B002C03F8014B03D0521EF7D2F9
:1043F0000021197010BD30B505460B462A4613F84A
:10440000014B12F8010B08B1A042F8D01CB10028F2
:1044100002D06D1CF1E7284630BD40EA0103024698
:1044200030B59B0710D14FF0013400E008C208C935
:104430001D1B9D4315EAC41FF8D013F0FF0102F8BD
:10444000011B0DD01B0AF8E711F8013B002B02F805
:10445000013B05D011F8013B002B02F8013BF3D1E1
:1044600030BD10B5431C02E010F8011B71B181078B
:10447000FAD14FF0013202C88C1A8C4314EAC211EF
:10448000F9D0C01A0A0603D0C01E10BDC01A10BD54
:104490000A0401D0801E10BD0902FCD0401E10BDD0
:1044A000421E12F8013F002BFBD111F8013B002BFB
:1044B00002F8013BF9D17047032A40F2308010F036
:1044C000030C00F0158011F8013BBCF1020F6244AF
:1044D00098BF11F801CB00F8013B38BF11F8013B40
:1044E000A2F1040298BF00F801CB38BF00F8013BED
:1044F00011F0030300F04483083AC0F0088051F83B
:10450000043B083A51F804CBA0E80810F5E7121D67
:104510005CBF51F8043B40F8043BAFF30080D20786
:1045200024BF11F8013B11F801CB48BF11F8012B52
:1045300024BF00F8013B00F801CB48BF00F8012B75
:1045400070474FF000020429C0F0128010F0030CF5
:1045500000F01B80CCF1040CBCF1020F18BF00F876
:10456000012BA8BF20F8022BA1EB0C0100F00DB825
:104570005FEAC17C24BF00F8012B00F8012B48BF83
:1045800000F8012B70474FF0000200B51346944627
:104590009646203922BFA0E80C50A0E80C50B1F19B
:1045A0002001BFF4F7AF090728BFA0E80C5048BFAF
:1045B0000CC05DF804EB890028BF40F8042B08BF4D
:1045C000704748BF20F8022B11F0804F18BF00F849
:1045D000012B7047704770477047000000487047D4
:1045E0008002002000487047780200207047704722
:1045F0007047704738B504460A4600206946AFF355
:104600000080002808BF38BD02460099204600F00F
:10461000F5FA012038BD012000F0A7BFF8B5AFF3CF
:104620000080054600200C46102000BF0646A81951
:10463000A0420DD9324669460020AFF30080070042
:1046400008BF00F092FF0098A04218BF0546C419A9
:10465000FFF7C4FF05600746F01D20F0070046196C
:10466000284600F00AF8B44208BFF8BDA21B314644
:104670003868BDE8F84000F0C1BA00210160C0E927
:10468000011070471020704770B5044685690068B6
:10469000C10601D5302600E02026C00707D070BD36
:1046A000D4E9012130469047206A401C20626D1EEB
:1046B000F6D570BD70B5044685690078C00707D18E
:1046C00070BDD4E9012120209047206A401C20625F
:1046D0006D1EF6D570BD09684A0501D540B2704718
:1046E000C905FCD500B2704709684A0501D5C0B2BA
:1046F0007047C905FCD580B270472DE9F0470D46DB
:1047000099469246044600F124080168880604D5BB
:10471000E06921F01001216000E00120A84201DDE4
:10472000471B00E00027A1697A1902EB0900081A6B
:10473000A0612078C00602D42046FFF7A5FF00261E
:1047400008E0D4E901211AF806009047206A401CCD
:10475000761C20624E45F4DB2078C0060AD5204640
:10476000FFF792FF06E0D4E9012130209047206A4C
:10477000401C2062381EA7F10107F4DC07E0D4E9F1
:10478000012118F805009047206A401C2062281E6D
:10479000A5F10105F3DC2046FFF78CFF2078000629
:1047A00002D50220BDE8F0870120FBE7116802680E
:1047B000006A530501D508700AE0D30501D50880C9
:1047C00006E0130603D5C217C1E9000200E0086045
:1047D0000120704701694A1C02610878704700B5E2
:1047E0008FB0CDE901310021059105497944CDE92A
:1047F000031011466846FFF7DDFB0FB000BD000057
:10480000E5FFFFFF0A6802F8010B0A607047D1E973
:1048100000239A4202D2531C0B601070704710B5EF
:10482000436913B1AFF3008001E0FFF75DFB0120A6
:1048300010BD127800F124010A7000224A70012292
:10484000EDE711684FF0FF32E9E700002DE9FF5F67
:1048500015468A460446DFF8AC80F8440027D8E9BC
:1048600000103E46CDE9001010E03AF816106A46F6
:1048700002A800F05AFE411C07D02178890603D512
:10488000E269391891420DD80744761C20788006D9
:1048900002D5E069B84205DDAE42E6DB3AF8160023
:1048A0000028E2D1A069C01BA0612046FFF7ECFE02
:1048B000D8E90010CDE90010002017E03AF81810F0
:1048C0006A4602A800F031FEB0F1FF3F81460BD0EE
:1048D00000250DF1080B05E0D4E901211BF80500C6
:1048E00090476D1C4D45F7D308F10100B04280465A
:1048F000E4DB206A384420622046FFF7DBFEBDE897
:10490000FF9F0000021900002DE9F0418046D21DF2
:1049100022F007020025D2E90002F52915A614D0DD
:10492000011E72F1000106DA0023D0EB030063EBF5
:10493000020211A608E0D8F800108B0701D50FA6D7
:1049400002E0490701D50EA601251146002408F111
:10495000240704E000F06CF930323A55641C50EA48
:104960000102F7D12B46324621464046BDE8F041D0
:10497000FFF7C3BE000000002D0000002B00000068
:104980002000000030B4002100F1240408E002F00F
:104990000705D208303542EA4372DB086554491CEA
:1049A00052EA0305F3D10468002310A2250707D5B6
:1049B000A40600D421B1C46901230DA2641EC46100
:1049C00030BCFFF79ABE10B5044621461068FFF7C9
:1049D0008BFE02462046BDE810400023D2E7D21DE0
:1049E00022F00701D1E90023CCE70000000000001D
:1049F00030000000F0B40D460188090502D5214CB5
:104A00007C4402E01F4C7C440E34002100F124065B
:104A100008E002F00F071209E75D42EA03721B0982
:104A20007754491C52EA0307F3D102780023120796
:104A300004D5702D06D009B1022311342246F0BCF2
:104A4000FFF75BBE01231034F8E770B504460D464E
:104A500021461068FFF748FE024629462046BDE879
:104A600070400023C6E7D21D22F00703D3E90023DC
:104A7000C0E70368126843F0200303600823C361A2
:104A80000023B7E7641700003A2800D2303820F03E
:104A90002002412A01D3A2F13700884201D34FF00E
:104AA000FF30704702681144137801601846704760
:104AB000D16005497944516104497944116200216A
:104AC0001161114600F028BBEDFFFFFFFD01000062
:104AD000426842B1016811F8013B23B1521EC0E99E
:104AE0000012184670470121C160881E7047426855
:104AF0005AB1C368016843B983688B4205D0491E27
:104B0000521CC0E90012002070474FF0FF30704780
:104B10002DE9F04791460F4680460446002614F8DA
:104B2000015B2DB100F062F80068405DC007F6D16E
:104B30002B2D02D02D2D18D0641E4A463946204612
:104B400000F0A4FC27B13968A14201D1C7F8008068
:104B50004FF0020471050BD54042002803DDFFF73A
:104B600041FD0460A007BDE8F08746F48066E4E7F5
:104B70000028F8DAFFF736FD04606FF00040F2E736
:104B800010B5203AC0F00B80B1E81850203AA0E8E8
:104B90001850B1E81850A0E81850BFF4F5AF5FEA1C
:104BA000027C24BFB1E81850A0E8185044BF18C9CF
:104BB00018C0BDE810405FEA827C24BF51F8043B76
:104BC00040F8043B08BF7047D20728BF31F8023BCA
:104BD00048BF11F8012B28BF20F8023B48BF00F85E
:104BE000012B7047004870477802002010B500F094
:104BF000E9FC001D10BD00BF3914000003464068E9
:104C00008C46002818BF88423CBF03464068F8D352
:104C100018681844884207D00CF1030020F0070000
:104C2000001D411A521A0146081D0A60FFF7E9B833
:104C300030B5B0F10A024FEA900E71F100034EEA6E
:104C4000817EB0EB0E0061EB91014FEA101E4EEA3F
:104C5000017E10EB0E0041EB11114FEA102E4EEACF
:104C6000016E10EB0E0041EB11214FEA104E4EEA9F
:104C7000014E10EB0E0041EB1141401841F10001D3
:104C80004FEAD00040EA41704FEAD10110EB8005B5
:104C90004FEA810444EA907444EB01046D1944EB3B
:104CA0000404521BA3414FF0000348BF0A3200D551
:104CB00030BD401C41F1000130BD10B50446FFF786
:104CC00095FF0068005D00F0010010BD70472DE900
:104CD000FF4F0C461E464FF0FF378BB0D2E9000164
:104CE000DDF860800A908A46C1F30A5505B93D4651
:104CF000002108464FF00000BAF1000F00F4400018
:104D000005DA00EB80004FF4400101EA50004FEA61
:104D10009059B9F1010F00DDB9460A9850EA4A00EE
:104D20000ED044F61050A5F2FF3545432F14B8F1CC
:104D3000000F1ED07542291E1EDDC9F100021CE0C5
:104D4000B8F1010F4FF0000001D0302103E0F24331
:104D500005E02154401CB042FBDB3046002200211C
:104D600021540B99C1F80880C1E900200FB0BDE8BB
:104D7000F08FBD1B6D1CDEE74A4600DA694206A8CB
:104D800000F064FC06AB93E8070003AB83E8070080
:104D900050460A9900F069FD8DE80700A0F5005023
:104DA0001F3800900398002D0ADD42F21F014A4689
:104DB0000844002303A90390684600F0D2FF09E0ED
:104DC000A0F500504A461F38002303A90390684607
:104DD00000F0DCFF8DE807000004000C03D04FF06A
:104DE000FF30410800E01046B8F1000F03D0002268
:104DF000009215461EE0751E05D4FFF719FF3032EC
:104E000062556D1EF9D5B3460122084302D0002237
:104E10007F1C04E02078302801D100227F1E002A68
:104E2000099784D01DE0112D07DAFFF701FF30321A
:104E300062556D1C50EA0102F5D1084302D000987A
:104E4000C8B10EE00021681E05E0235C625C63547B
:104E50002254401E491C8142F7DBAB46A81B401E72
:104E60000990002004F80B000B98099AC0F80880FC
:104E7000C0E9002B7AE711264FF0000857E72DE92B
:104E8000F04F88460446D21D22F0070191B0D1E9C7
:104E90000001CDE90A0101F0B0F802460B98C00FFD
:104EA00001D02D2007E02068810701D52B2002E0EA
:104EB000202101EAC000032A099001D0072A05DB5E
:104EC00003464146204600F081FB0BE12078800636
:104ED00001D5E06900E00620B8F1650F814606D0F3
:104EE000B8F1660F18D0B8F1670F70D131E000202B
:104EF000B9F1110F009001DB112301E009F1010369
:104F00000AAA01A90CA8FFF7E2FEDDE90C70002651
:104F100009F10105834647E001204B4600904FF020
:104F200000470AAA01A90CA8FFF7D1FEDDE90DB0E0
:104F30000C995D46002610B909F101000D18B9EB76
:104F4000050003D4C0F1FF3609F10105A5EB090006
:104F50002BE0B9F1010F01DA4FF001090020B9F19E
:104F6000110F0090484601DD112300E003460AAA14
:104F700001A90CA8FFF7ABFEDDE90C704D46002639
:104F80008346207800070AD4AB4500DA5D4601A8C5
:104F9000012D04DD411911F8011C302907D04F45BE
:104FA00002DA17F1040F04DA012082460FE06D1EC9
:104FB000EEE7002F02DCED1B3E4403E0781CA84224
:104FC00000DD7D1CB81B00F1010A4FF0004720787E
:104FD000000703D4AA4501DB4FF0FF3A0021B7F1E7
:104FE000004F0DF143088DF8431024D002202B23ED
:104FF000002F01DA7F422D230A21021EA0F10100B9
:1050000000DC5FB197FBF1FC97FBF1F201FB1C7C2C
:1050100017460CF1300C08F801CDEEE7A8F10100BD
:1050200003702188090501D5452100E06521A0F123
:10503000010800F8011C09980FA9A1EB0807FF1D42
:1050400000B10120411901EBEA70A1693844081A46
:10505000401EA0612078C00602D42046FFF714FB52
:10506000099828B1D4E901219047206A401C2062A8
:105070002078C00622D52046FFF706FB1EE0002E52
:1050800004DBB34502DD01A8805D00E03020D4E9F7
:1050900001219047206A401C2062761CAAF1010081
:1050A0005FEA000A0AD100F08DFAC0680168405C2E
:1050B000D4E901219047206A401C2062281EA5F1F6
:1050C0000105DCDC07E0D4E9012118F8010B904769
:1050D000206A401C2062381EA7F10107F3DC20463D
:1050E000FFF7E8FA032011B041E610B5436913B1A8
:1050F000AFF3008001E0FFF7A9FB012010BD12888B
:1051000000F1240182840022C2840122EDE71168AB
:105110004FF0FF32E9E700002DE9F34F4FF0000AAE
:105120000C4656468DB001200C9001F10C000B90FE
:1051300062690B9801219047051E2DD0252D2CD09A
:10514000216A8847C0B162690B9801219047216AA2
:1051500088470028F7D16269411E0B98904700E00C
:10516000761CA1690D988847216A88470028F7D1E5
:10517000E1690D988847DBE7A1690D988847A84247
:10518000074601D1761CD3E7E1690D9888477F1C5B
:1051900002D1BAF1000F6FD06BE162690B98002762
:1051A0003D46394690472A2804D162690B9801216F
:1051B00090470125DFF8D08262690B980121904762
:1051C000A0F130010A290AD24745E5DC07EB870147
:1051D00000EB4107303FDFD445F01005ECE7E9066E
:1051E00001D46FF000476C280AD04C2814D06828EE
:1051F00015D06A280DD074281CD07A281AD01DE04A
:1052000062690B98012190476C2802D045F0040593
:1052100014E045F002050DE045F020050AE0626962
:105220000B9801219047682802D045F0080505E059
:1052300045F4006562690B9801219047C4E9015764
:1052400065283DD019DC58287AD00CDC452837D0A9
:1052500004DC252826D041289ED131E046282FD0D5
:10526000472899D12CE05B2877D0612828D0632883
:105270007CD0642823D15AE0F6E06F2848D008DCBF
:1052800066281DD067281BD0692821D06E2816D12A
:1052900027E0702845D0732868D0752847D0782833
:1052A0000DD14DE0A1690D988847252805463FF4AA
:1052B00069AFE1690D9888476D1C3FF46AAFD8E08B
:1052C0000D9923466A466FF00100AFF30080C5E0F8
:1052D00045F0400023464FF000026060A80736D436
:1052E0003EE0E8077FF447AF2068011D21600068B9
:1052F000290501D506701BE7290701D5068017E7A8
:10530000A90703D5F117C0E9006111E706600FE7AF
:1053100045F0400023464FF008026060A80716D40D
:105320001EE040F60E0125EA0100606016E045F03F
:10533000400023464FF00A026060A80707D40FE040
:1053400045F040006060A80708D5234610220D995B
:105350006FF00100AFF3008080E007E010222346E9
:105360000D996FF00100FEF707FF77E04FF000099D
:1053700063284F46C8464B46CB4602D05B2806D032
:1053800038E0E80601D40120A060012732E062691C
:10539000D4F80CB00B98012190475E2807D14FF04C
:1053A000010949466269D4F80CB00B98904721690D
:1053B00039B900210A4603AB43F82120491C0829CA
:1053C000FADBD8B3216949B308F1010862690B9887
:1053D000012190475D28F4D1B9F1000F09D00020D8
:1053E00003A951F82020D24341F82020401C08286E
:1053F000F7DB03AB2069002820794FEA40701ED00C
:105400005B462246CDF80080CDE901970D99002832
:105410006FF0010020DAAFF300801FE0C11703AA8C
:1054200000EBD1614B1121F01F0102EB8302411A05
:1054300013680120884003431360C7E719E00D9902
:10544000224600286FF00100009702DAAFF30080D7
:1054500004E0FEF737FF01E0AFF3008000280ADA2E
:10546000401C06D10C9820B14FF0FF300FB0BDE8C2
:10547000F08F5046FAE7E90701D10AF1010A064424
:1054800000200C9054E60000CCCCCC0C2DE9F05F51
:10549000824615468B4600270AF10104B94600787A
:1054A000302801D09DB113E014F8010B01277828B2
:1054B00003D0582801D045B10AE00DB1102D07D115
:1054C000002714F8010B102502E0082500E00A254A
:1054D0000026B0460EE005FB080005FB06F101279B
:1054E0001FFA80F801EB1046B6F5803F00D3B946AD
:1054F00014F8010B2946FFF7C7FA0028EBDABBF1D5
:10550000000F05D00FB1641E00E05446CBF80040F8
:10551000B9F1000F06D0FFF765F802210160C81E3F
:10552000BDE8F09F48EA0640FAE770B516460C461B
:105530000546FFF75BFB036893F80101012806D0DD
:10554000FF2C0FD8185D68B101202C7070BDD3F806
:1055500007013246214603F2071303442846BDE8FB
:10556000704018474FF0FF3070BD10B500F0EEF8F6
:10557000BDE8104000F0E5B870477546FFF732FB14
:10558000AE4605006946534620F00700854618B030
:1055900020B5FAF7EBFFBDE820404FF000064FF0D2
:1055A00000074FF000084FF0000B21F00701AC4658
:1055B000ACE8C009ACE8C009ACE8C009ACE8C00977
:1055C0008D46704700487047980200202DE9F04151
:1055D0001F46044603260168072A01F4006004DB25
:1055E00008B116A505E016A503E008B115A500E071
:1055F00015A521F010002060A069C01EA0610FB1A8
:10560000401EA0612046FFF73FF84FB1D4E90121C9
:1056100038469047206A401C2062C01C206206E089
:10562000206AFAE7D4E9012115F8010B9047761EAC
:10563000F8D22046FFF73EF8BDE8F0814E414E001B
:105640006E616E00494E4600696E66002DE9F047B6
:10565000814616468AB0354878440DC88DE80D005D
:1056600032487844801C03AC0DC884E80D0041F634
:105670009B300844372190FBF1F290FBF1F5A5F146
:10568000800501FB12041B3C02D56442012000E0AE
:105690000020DFF898A080460027FA44AAF1BE0A4D
:1056A0000EE0E0070AD03246684607EB47010123C7
:1056B0000AEB810100F06AFB8DE8070064107F1C93
:1056C000002CEED1194F7F44AE3F19E0E80715D00A
:1056D00007EB04100DF1180A90E80E008AE80E009E
:1056E000C068F04201D1981908903246012306A9FA
:1056F00003A800F04BFB03AB83E807006D10641CAC
:10570000002DE3D14FF0010332466946B8F1000F96
:1057100003A802D000F025FB01E000F037FBC9E947
:105720000001C9F808200AB0BDE8F087B00B0000FE
:1057300010B50446AFF300802046BDE81040FAF7EC
:1057400076BD002801D000F029B8704710B50128B7
:1057500005D0002103A000F027F8012010BD09A109
:10576000F8E7000053494752544D454D3A204F75D4
:1057700074206F662068656170206D656D6F727949
:10578000000000003A2048656170206D656D6F7201
:105790007920636F72727570746564000149182016
:1057A000ABBEFEE72600020070B505460C460A2097
:1057B00000E06D1C00F052F835B128780028F8D1CF
:1057C00002E0641C00F04AF814B120780028F8D1F7
:1057D000BDE870400A2000F041B800004FF0013CE5
:1057E00050F8042B51F8043B9A4221D1A2EB0C0350
:1057F000934313EACC1317D150F8042B51F8043B10
:105800009A4215D1A2EB0C03934313EACC130BD1AC
:1058100050F8042B51F8043B9A4209D1A2EB0C0337
:10582000934313EACC13DBD04FF00000704700BF66
:10583000D01A01BAB1FA81F101F0180122FA01F08F
:10584000CB40C1F12001DBB2C0B2C01A2CFA01F387
:10585000D11A914311EAC311E6D1704708B56946E0
:105860008DF800000320ABBE08BD5FEA400C08BF06
:1058700091F0000F4FEA8C234FEAC12243EA5151C5
:105880004FEA1C5018BF00F5F0404FEA300018BF37
:1058900041F000415FEA6C5C00F02980BCF1FF3F01
:1058A00008BF40F080407047130C06BF12044FF051
:1058B000100C4FF0000C130E04BF12020CF1080C78
:1058C000130F04BF12010CF1040C930F04BF9200DC
:1058D0000CF1020CD30F04BF52000CF1010C114665
:1058E0004FF00002A0F11F00A0EB0C00704711F078
:1058F000004F08BF704731F000413FF4D5AF0B0CAB
:1059000006BF09044FF0100C4FF0000C0B0E04BF43
:1059100009020CF1080C0B0F04BF09010CF1040C77
:105920008B0F04BF89000CF1020CCB0F04BF4900A0
:105930000CF1010CCCF12003A0EB0C0022FA03F3D4
:1059400002FA0CF241EA030100F10100704720F075
:105950007F4C80EA030023F07F47ACEB070303F59D
:105960007C5300F0004003F1FF032DE980494FEA2A
:10597000154B09B44FEA144325EA0B4E24EA0348B9
:105980000FF2042606EB132749083E785FEA32023D
:1059900003FB0667C7F5000707FB06F64FEA543717
:1059A0004FEAD64606F1020607FB066CCCF1005C16
:1059B0004FEA1C472CEA074C07FB06F40CFB06F5E4
:1059C00004EB15464FEA961634BF00204FF0004016
:1059D0004FEAD13706FB07FC4FEA1C4C0CFB0BF7D8
:1059E000D21B03FB0CF761EB07010CFB0EF7B0EBCE
:1059F000074072EB17420CFB08F734BFA2EB0742DB
:105A0000B2EB074261EB17414FEA0C444FEA9107B2
:105A100006FB07FC4FEA1C4C0CFB0BF7B0EBC74036
:105A200072EB573203FB0CF734BFA2EBC742B2EB69
:105A3000C74261EB57310CFB0EF7B0EBC70072EBBE
:105A400057720CFB08F734BFA2EBC702B2EBC702D8
:105A500061EB5771039F4FEA816141EA921104EBB8
:105A6000CC044FEAD1374FEA826206FB07FC42EAD8
:105A700090124FEA80604FEA1C4C0CFB0BF7D21BD4
:105A800003FB0CF761EB07010CFB0EF7B0EB0740D3
:105A900072EB17420CFB08F734BFA2EB0742B2EBE4
:105AA000074261EB17414FEA8C554FEA910704EB2F
:105AB0009C2406FB07FC4FEA1C4C0CFB0BF7B0EBDD
:105AC000C74072EB573203FB0CF734BFA2EBC7425F
:105AD000B2EBC74261EB57310CFB0EF7B0EBC700DE
